:020000040800F2
:1000000000200020E92F0008712D0008792D00083C
:1000100000000000000000000000000000000000E0
:10002000000000000000000000000000812D00081A
:1000300000000000000000008B2D0008952D000836
:1000400039300008393000083930000839300008EC
:100050003930000839300008A32D0008B32D0008FE
:10006000000000003930000839300008393000083D
:1000700039300008393000083930000839300008BC
:1000800039300008393000083930000839300008AC
:10009000393000083930000800000000393000080D
:1000A000393000083930000839300008393000088C
:1000B000393000083930000839300008393000087C
:1000C00010B5064C2378002B07D1054B002B02D02E
:1000D000044800E000BF0123237010BDAC010020E4
:1000E0000000000008B20008044B10B5002B03D03C
:1000F0000349044800E000BF10BDC04600000000F6
:10010000B001002008B200080023C25C0133002ABD
:10011000FBD1581E7047000003B4714649084000E7
:100120004900095E49008E4403BC70470022430821
:100130008B4274D303098B425FD3030A8B4244D3AF
:10014000030B8B4228D3030C8B420DD3FF220902F1
:1001500012BA030C8B4202D31212090265D0030BB0
:100160008B4219D300E0090AC30B8B4201D3CB03A6
:10017000C01A5241830B8B4201D38B03C01A5241E8
:10018000430B8B4201D34B03C01A5241030B8B42EA
:1001900001D30B03C01A5241C30A8B4201D3CB02D5
:1001A000C01A5241830A8B4201D38B02C01A5241BA
:1001B000430A8B4201D34B02C01A5241030A8B42BD
:1001C00001D30B02C01A5241CDD2C3098B4201D3D5
:1001D000CB01C01A524183098B4201D38B01C01A53
:1001E000524143098B4201D34B01C01A52410309CA
:1001F0008B4201D30B01C01A5241C3088B4201D379
:10020000CB00C01A524183088B4201D38B00C01A25
:10021000524143088B4201D34B00C01A5241411A4C
:1002200000D20146524110467047FFE701B5002059
:1002300000F0F0F802BDC0460029F7D076E770471D
:1002400003460B437FD4002243088B4274D3030937
:100250008B425FD3030A8B4244D3030B8B4228D3D8
:10026000030C8B420DD3FF22090212BA030C8B42FE
:1002700002D31212090265D0030B8B4219D300E09E
:10028000090AC30B8B4201D3CB03C01A5241830B23
:100290008B4201D38B03C01A5241430B8B4201D3D3
:1002A0004B03C01A5241030B8B4201D30B03C01AFC
:1002B0005241C30A8B4201D3CB02C01A5241830A76
:1002C0008B4201D38B02C01A5241430A8B4201D3A5
:1002D0004B02C01A5241030A8B4201D30B02C01ACF
:1002E0005241CDD2C3098B4201D3CB01C01A524136
:1002F00083098B4201D38B01C01A524143098B42BF
:1003000001D34B01C01A524103098B4201D30B01A7
:10031000C01A5241C3088B4201D3CB00C01A5241CC
:1003200083088B4201D38B00C01A524143088B4291
:1003300001D34B00C01A5241411A00D2014652412A
:10034000104670475DE0CA0F00D04942031000D349
:100350004042534000229C4603098B422DD3030A9E
:100360008B4212D3FC22890112BA030A8B420CD3AE
:10037000890192118B4208D3890192118B4204D3D7
:1003800089013AD0921100E08909C3098B4201D357
:10039000CB01C01A524183098B4201D38B01C01A91
:1003A000524143098B4201D34B01C01A5241030908
:1003B0008B4201D30B01C01A5241C3088B4201D3B7
:1003C000CB00C01A524183088B4201D38B00C01A64
:1003D0005241D9D243088B4201D34B00C01A52413B
:1003E000411A00D20146634652415B10104601D3C8
:1003F0004042002B00D54942704763465B1000D352
:10040000404201B5002000F005F802BD0029F8D0F7
:1004100016E770477047C0468446100062468C4617
:100420001900634600E0C0461FB501F073F80028CC
:1004300001D40021C8421FBD10B500F0B3FF4042F7
:10044000013010BD10B501F065F8002801DB002077
:1004500010BD012010BDC04610B501F05BF80028AA
:1004600001DD002010BD012010BDC04610B500F018
:10047000DDFF002801DC002010BD012010BDC046BA
:1004800010B500F0D3FF002801DA002010BD0120D4
:1004900010BDC046002B11D1002A0FD1002900D178
:1004A000002802D00021C943080007B4024802A175
:1004B0004018029003BDC0465DFFFFFF03B46846CD
:1004C00001B5029800F024F8019B9E4602B00CBCD6
:1004D0007047C04670B500220C4B04000D00FFF7BA
:1004E000CFFF002804D12000290001F0E9FE70BDF3
:1004F000064B00222000290001F046FB01F0E0FE3F
:1005000080231B069C466044F1E7C0460000E041A2
:10051000F0B557464E464546DE46E0B504000D00B0
:100520009246994683B08B4230D82DD049465046EA
:1005300001F072FF29000600200001F06DFF331A60
:100540009846203B34D49B4653465A4693404246F5
:100550001F00534693401E00AF423BD8AF4200D12C
:1005600079E05B46A41BBD41002B00DA76E0002257
:1005700000230092019301235A46934001930123E3
:1005800042469340009329E08242CFD900220023C3
:10059000009201930C9B002B01D01C605D600098C1
:1005A000019903B0F0BCBB46B246A946A046F0BDD7
:1005B00042469B4620239B1A5246DA40414613008E
:1005C0004A468A40170042461F43534693401E0046
:1005D000AF42C3D900220023009201934346002B6F
:1005E000D8D0FB0772081A4346467B080EE0AB42A0
:1005F00001D1A2420CD8A41A9D41012024196D41B9
:100600000021013E24184D41002E06D0AB42EED908
:10061000013E24196D41002EF8D1009801995B46E6
:1006200000196941002B24DB2B005A464446D34075
:100630002A00E2401C005B461500002B2ADB260046
:100640009E40330026004746BE403200801A994142
:10065000009001919EE7A342BCD882E74246202346
:1006600000219B1A0022009101920122DA4001929E
:1006700085E7424620239B1A2A0046469A402300DB
:10068000F340444613432A00E2401C005B46150039
:10069000002BD4DA42462F002023260097409B1AD5
:1006A000DE403B003343CDE7F0B557464E46454666
:1006B000DE46E0B583B0009001910C034F00CE0FF1
:1006C000610A009C1D03640F0C4300990092019382
:1006D000C80059004B0D9946009A019B6D0AD90F2D
:1006E000530F2B439A46009B7F0DDA0094464A46EF
:1006F000B046BA1A8E4200D1B0E0002A00DC78E0A1
:100700004946002900D1E9E0C9498F4200D195E16D
:100710000125382A16DC8021534609040B439A46EA
:100720001F2A00DDE7E1202155468B1A61469D40D6
:10073000D1400D43614699404B1E99415346D340E9
:100740000D43E41A451BA84280414042241A23026B
:1007500000D40FE16402640A002C00D139E12000CA
:1007600001F03CFE0300083B20212800CA1AD040BB
:100770009C4002009D4022439F4200DD73E1D81B54
:100780000130091A2C008D40C4406B1E9D4113009E
:10079000C2408B402543002714001D436B0709D03E
:1007A0000F232B40042B05D02B1DAB42AD416D42D6
:1007B00064191D00230200D42DE19D4A01379742A0
:1007C00000D1D3E046469B49ED0821404A072A4321
:1007D0007C054D022D0B640D24052C43F607344394
:1007E0001000210003B0F0BCBB46B246A946A046AB
:1007F000F0BD002A00D184E04A46D21B002F00D071
:100800006DE12500054300D127E1561E012A00D1E4
:100810003BE2874DAA4200D16AE20125382E12DC64
:1008200032001F2A00DDF8E120262500B61A070055
:100830005346B040D440B540D740461EB0411B1B84
:100840009A463D4305436246551BAC45924153468B
:1008500052420E004F4688469C1A78E7002A00DC78
:100860008EE04946002975D161465346194300D1AF
:10087000F6E0511E012A00D191E16D4DAA4200D14E
:10088000DCE00125382914DC0A001F2A00DDA2E182
:1008900020215346891A8B401D006346D3401D43D7
:1008A00063468B4019004B1E99415346D3400D437C
:1008B000E4182D188542804140422418230259D55E
:1008C0005B4B01379F4251D001215A4B6A081C40B3
:1008D00029400A43E507154364085FE7614653462C
:1008E000194300D1BCE0511E012A00D164E1504DF2
:1008F000AA4200D16AE10125382900DD22E70A0079
:100900000EE74D4A7D1C154200D0D0E0250062461E
:10091000534605431A43002F00D037E1002D00D184
:10092000A8E1002A00D16AE16346C51A5346E21ADB
:10093000A8429B415B42D31A1A0200D403E26346E9
:100940001D1AAC459241534652421C1B0E0088466C
:10095000A41A23E736498F4270D00125382AA8DC33
:100960008021534609040B439A468EE73C0000253C
:10097000002231E707232B40002B00D010E793E043
:10098000002A74D04A46D21B002F00D1C7E0284964
:10099000894500D185E10125382A12DC802109042E
:1009A0000C431F2A00DDABE120212500891A070036
:1009B00088408D40D740411E8841D4403D43054387
:1009C000A2446544654592415242524414004F4648
:1009D00074E7280001F002FD030018331F2B00DC30
:1009E000C2E62A00083882409F4200DDA9E0DB1BF6
:1009F000581C1F2800DCACE115001F3BDD402028FF
:100A000005D040231B1A9A40531E9A4115430723D1
:100A100000272B40B0E7ED08054B62072A43E408A6
:100A20009F420FD02403250B7C05640DD4E6C046FD
:100A3000FF070000FFFF7FFFFE070000C0086207FE
:100A40000243E4081300234300D186E180252D03EF
:100A500025432D03C34C2D0BBEE6604654460E00C5
:100A60001700C508D8E7C04CFF1A144096E6BF4AE5
:100A7000791C11426BD122000243002F00D0DBE031
:100A8000002A00D12DE1624653461A4300D1B6E058
:100A90006346C518854280415444404224182302CD
:100AA00002D50F00B04B1C403A002800D8E7624640
:100AB000851AA8429241534652429146E31A1A00BF
:100AC0004B46D21A130091461A0254D44A464C4659
:100AD0002A4300D040E60026002400257CE6A14DF4
:100AE000A94500D190E00125382A00DDABE680253C
:100AF0002D042C4395E6110055462039CD40A946DA
:100B0000202A06D0402153468A1A934062461A434F
:100B1000944665466B1E9D414B461D4312E62100DF
:100B2000014300D1C4E0511E012A00D1FBE08D4DEC
:100B3000AA4200D1B5E00125382900DD41E70A00CD
:100B40002FE7894CFF1A14406207E4086AE7854AD8
:100B5000914200D1E3E06346C21882428041230003
:100B6000404253441B18DD075C0807235208154315
:100B70000F002B4000E763461D1AAC4592415346D7
:100B800052421C1B0E008846A41AE5E5002D00D039
:100B900091E0002A38D180240026240356E76346DA
:100BA000C51885428041544440422418012723023D
:100BB00000D4DFE6022787E66346C51AA8428041D3
:100BC00053464042E41A0127241AC0E56207C008D0
:100BD0000243E40836E7110053462039CB409946DA
:100BE000202A06D0402153468A1A934062461A436F
:100BF000944665466B1E9D414B461D4359E6620770
:100C0000C0080243E4080DE753465A076346D80874
:100C100053460E000243DC0814E715002600203D71
:100C2000EE40202A03D04025AA1A94402043421EB9
:100C300090410500354306E6002A7CD062465346C3
:100C4000C0081A4300D1FAE6620710438022E40884
:100C50001203144208D0D908114205D16346D808BE
:100C600053460C005B071843420FC000C0085207F0
:100C70000243E7E6002A00D12DE76346D808534631
:100C80005A070E000243DC08CCE663461D1AAC4549
:100C90009241534652421C1B0E008846A41A01374B
:100CA00055E56346D90853465A070A43DC08C9E6A6
:100CB00060465446D4E6C008002A00D1BFE6620769
:100CC00010438022E40812031442CDD0DD081542FF
:100CD000CAD16346D80853465B070E002C00184360
:100CE000C2E76346D90853465A070A43DC0899E627
:100CF0006346D80853465A070E000243DC08A1E6B3
:100D0000110027002039CF40202A03D040218A1A21
:100D100094402043421E904105003D4351E60C00A3
:100D20000025002258E560446045924154445242F7
:100D30000500A4183AE753465A076346D9085346B4
:100D40000A43DC087EE61A001C002A4300D0ABE60A
:100D5000C1E620210025091A19E500220025014CD1
:100D60003AE5C046FF070000FFFF7FFFFE070000D7
:100D7000F0B5DE46454657464E46E0B587B0009290
:100D800001930B031B0B9B46CA0F4B0004008046CC
:100D90005B0D029200D16AE1D44A934200D18CE10A
:100DA0005946420FC9000A43802109041143C20079
:100DB0009046CF4A894692469A44002300240393E2
:100DC000009E019F3B031B0B9B467B0030005B0D8D
:100DD000FD0F002B00D128E1C44A934200D177E1F6
:100DE0005946720FC9000A438021090411438B46FA
:100DF000BF49F2008C4651466344CB1A9A46002301
:100E0000029E6E400F2C27D8BA49A40009598F467C
:100E1000CB464246029E039B022B16D0032B00D1E9
:100E2000A6E2012B00D0DFE0002200230024904640
:100E30001B052343F60733434046190007B0F0BCB7
:100E4000BB46B246A946A046F0BD0022002490460B
:100E5000A64BEDE72E00DFE7CB4500D2D4E100D171
:100E6000CFE101235B429C46444648460027E244CA
:100E70005B46150E1B021D43190C2B041202009534
:100E80001D0C914602910395FFF7D6F902006A43C3
:100E90000B04210C804619438A4209D9009D012385
:100EA000AC465B4261449C46E0448D4200D8FBE185
:100EB000881A0299FFF7C0F9039A240442430904EF
:100EC000240C03000C43A24206D90099013B8C4636
:100ED0006444A14200D8E1E1A01A424612041A4338
:100EE00093464B4659461B0C1D0004930B04494680
:100EF0000904090C0C001B0C5C43120C6B43884664
:100F000051436A43250CAC465B186344994203D9AC
:100F1000802149028C466244190C24041B04240CD1
:100F20008A181C19904202D316D1A74214D25B46EC
:100F3000009D013B4F4405934F459B41AC465B42AE
:100F40006344C018854200D3A1E1824200D9F6E192
:100F500000D1F1E1059B9B463C1BA742BF41009D90
:100F6000801A7F42C01B854200D1D0E10299FFF771
:100F700063F9039A0B044243210C070019438A4288
:100F800000D978E1881A0299FFF756F9039A2404E8
:100F900042430904240C03000C43A24200D95DE142
:100FA0004146A41A3A041A43049D13041B0C5943E6
:100FB00047466B439C46100C47430B0CBC446344B0
:100FC00068439F4203D980256D02AC4660441F0CE4
:100FD00009041B04090C3F185B18BC4200D202E153
:100FE00000D1FDE001231A43434B5344002B00DCA6
:100FF000AEE0510700D098E15946C90106D55946DF
:101000003E4B194080238B46DB0053443C498B42C6
:1010100000DD1AE75946D208490711435A465B05D5
:1010200054028846240B5B0D02E75A46009B1A4384
:1010300000D17EE05B46002B00D100E1584601F074
:10104000CDF9020003000B3A1D27009EBA1A1900C1
:101050005846D64008398840320002439346009AE9
:101060008A40284953448A469A440023C8E65B468E
:101070000343994656D05B46002B00D1CDE058463D
:1010800001F0ACF90B235B429C46020084446646A7
:101090001D239B1B260011005846DE40083988405E
:1010A00033000343994623008B409846164B002497
:1010B0009B1A9A460023039382E65A4602439146BE
:1010C0002AD100229A46022390460824039377E609
:1010D0005A46009B1A430D4B9C46E244002A17D106
:1010E00002231C4300239B46023389E6FF070000CE
:1010F00001FCFFFFF0B60008FF030000FFFFFFFE4A
:10110000FE070000F30300000DFCFFFF01F8FFFFE6
:10111000032332001C4373E69A460323D9460C246A
:1011200003934DE6002398469A4601330424039323
:1011300046E601231C4300239B46013360E600235F
:10114000802498460026924B240371E601225242E5
:101150000121C91A382900DD66E61F2900DCABE051
:101160001F204042C31A5846D8400300202904D00B
:1011700058468849514488400243511E8A411A43C7
:10118000072319000024114013420CD00F231340F1
:10119000042B00D1F9E0111D91429B410A005B42F2
:1011A00059075B021C0BD2080A43904600233FE616
:1011B00080244B462403234209D05B46234206D1B8
:1011C0001C4324032E009046714B240B30E68024F0
:1011D0004B4624031C432403029E6D4B240B27E63D
:1011E000002B00D100E70098511E844664448442DD
:1011F00000D284E0BC4200D2AEE000D1C1E00A00DF
:10120000F0E6424500D92CE64B46DC075808434639
:101210005B081C434346DF072AE601F0DFF815238D
:101220009C4684440200634620321C2B00DC2EE7DF
:1012300023000838834099460023984636E701F09A
:10124000CDF802000300153220331C2A00DCFBE637
:1012500000990838814000228B4602E70099013B43
:101260008C466444A14200D99AE6A24200D897E68F
:10127000831E644494E6AC466144013F8D4200D92C
:1012800080E68A4200D87DE6871E61447AE6854280
:1012900000D05FE6B94500D95CE656E6A24200D828
:1012A0001AE6831E644417E68A4200D800E6AC467C
:1012B000831E98466144FBE5374814005044824041
:1012C0005B4617008340CC407A1E974123433B4343
:1012D0001A005B46CB40510709D00F211140042969
:1012E00005D0111D9142924152429B180A001902E9
:1012F00000D455E7002201230024904698E50A0017
:10130000BC4200D06EE64B4500D06BE66CE6234B4A
:10131000234A5344924500DA18E7012149420A1D45
:101320008A42894149428B4466E60F2111400429D3
:1013300000D161E61100F2E7BC4200D80AE60223C0
:101340005B429C4600994F444F459B41E3448C4689
:101350005B426344C018FFE54946009D480048458C
:101360008941AC46494261448146023A6418C7E764
:1013700080245B4624031C4324039046044B240B27
:1013800056E59945E8D30A00BDE7002308E7C046C3
:10139000FF0700003E0400001E040000FF030000E1
:1013A00002FCFFFFF0B55746DE464E464546E0B527
:1013B0000D000400E80F83460903D80F090B82468D
:1013C00019488C461F0369005E00490D3F0B760DDE
:1013D000814218D086420FD00120B1420DD1BC45C8
:1013E0000BD1944209D1D3451CD0002905D16046C8
:1013F0002043431E984100E00120F0BCBB46B246AA
:10140000A946A046F0BD01208E42F6D1614639437F
:101410000F0017432743F0D15B465246981A431EEC
:101420009841EAE70020E8E7FF070000F0B55746DB
:101430004E464546DE46E0B50D000F03390B83B03E
:101440000400804601915800E90F314F400D8C4651
:101450006E00190382469146760D090BD80FBE42E5
:101460001FD0BA450FD0002E2FD15546019E3443D0
:10147000002D27D10A433AD0002C45D100281AD19B
:101480000120404217E011433BD1002E02D1019FC1
:101490002743F3D0844509D16346002BF0D0604642
:1014A00009E0019F27432CD1B24524D06346022096
:1014B000013B1840013803B0F0BCBB46B246A94618
:1014C000A046F0BD002CD9D0E4E75446002CEDD066
:1014D0008445EBD15645E9DCDEDB019B8B42E5D848
:1014E000DAD1C845E2D80020C845E4D2D4E70020CC
:1014F000002CE0D0DAE7114303D18445D6D1002097
:10150000D9E702204042D6E78445E6D0CEE7C04680
:10151000FF070000F0B557464E464546DE46E0B5AB
:101520000D000F0304008046E80F390B844683B09A
:101530005800304F400D01911E03690082469146CC
:10154000490D360BD80FB94220D0BA450FD000292B
:101550002BD101990C435146002937D1324338D061
:10156000002C44D1002819D10120404216E0164336
:1015700013D1002902D1019F2743F3D0844520D005
:1015800063460220013B1840013807E0019F2743D2
:1015900003D18A45F4D116431FD0022003B0F0BC1A
:1015A000BB46B246A946A046F0BD5446002CE7D043
:1015B0008445E5D15145E3DC03DB019BB342DFD831
:1015C0000FD06346002BCFD06046E7E7002CC9D090
:1015D000D4E70020002CE1D0D2E78445D0D1002010
:1015E000DCE7C845CCD80020C845D7D2E9E7844518
:1015F000E3D0C5E7FF070000F0B55746DE464E468C
:101600004546E0B51F000B031B0B16009A46CA0F98
:101610004B000400934687B05B0D00D1D5E0BB4A78
:10162000934200D1F8E05146420FC9000A4380219D
:1016300009041143C2009146B54A8A469D18002309
:10164000984602933C037B00FA0F3000240B5B0D9D
:10165000009200D196E0AD4A934231D0720FE4007F
:101660002243802424041443A94AF000944663448E
:101670005B195A1C0192424600260A2A42DC5A464D
:1016800000994A4093464246022A32DC013A012A36
:1016900000D949E1022E00D1CAE0012E3DD100233C
:1016A0000024002210005A461B052343D20713438F
:1016B000190007B0F0BCBB46B246A946A046F0BD33
:1016C000924B2643EB18002E00D1BBE0032241468B
:1016D00011435A46884600994A40802109018C46A8
:1016E00029006144019141460A2900DD33E2934615
:1016F0000326424601279740A6213A00C9000A4026
:101700000F4231D0029E022E00D135E2032E00D1CD
:10171000D2E154464846012EC1D0019A7D4B9446F1
:101720006344002B00DCC0E0420709D00F220240D6
:10173000042A05D0021D8242804140422418100034
:10174000E20106D5744B019A1C4080239446DB00CD
:101750006344724A93426BDC6207C00864025B0513
:101760000243240B5B0D9DE7902189000F4263D15A
:1017700088223A4200D1D7E0009BA2469B46814690
:101780000296BFE72300334300D17FE0002C00D155
:10179000ADE1200000F022FE020003000B3A1D2004
:1017A0001900821A30000839D0408C4004433000C0
:1017B00088405B4AEB1A944663445A1C01924246A5
:1017C00000260A2A00DC5AE79CE753460343994661
:1017D00054D05346002B00D177E1504600F0FEFD77
:1017E0000B235B429C46020084441100504608399A
:1017F00088401D23804660461B1A2000D840030005
:10180000404603439A4623008B4099460023444DAB
:101810009846AD1A029315E752460243914626D1E7
:1018200000221D000223924608329046029309E7E7
:1018300000240022354B35E7002380249B462403F7
:10184000324B2FE702224146114380221201944677
:101850002A006244884601920A2900DD52E75A466E
:101860000020009904004A40934602260BE70C2210
:101870001D000323814690460293E3E600239A4627
:1018800004339846033B00250293DBE642460133CE
:101890001A432B0090465A1C019242460024002015
:1018A00001260A2A00DCEAE62CE70122D21A382AAD
:1018B00000DDF4E61F2A00DC2AE11F214942CB1A91
:1018C0002100D9400B00202A05D0164A019D9446DC
:1018D0006544AC402043421E904118430723190041
:1018E0000024014003420CD00F230340042B00D1FD
:1018F00040E1031D8342A441180064426107640271
:10190000240BC20800230A43CCE6C046FF070000B0
:1019100001FCFFFFFF030000FFFFFFFEFE070000CA
:101920000DFCFFFF3E04000049464A460904090C2D
:101930000D00160C020C0004000C4543AC460500DB
:101940007543A84615000F007543009202952A00C2
:10195000009D6F4365462D0CA94647444F44B8454A
:1019600005D91500802252029046454402953D0C4F
:10197000039565462D043F042D0CAC463D0065449F
:101980000495250C2404240CAC4625007543A84678
:1019900065460F006943414489466743390C494411
:1019A0006E43884503D980225202904646440D0C6E
:1019B000A846350045440595039D3F04A8463F0CC5
:1019C0000904C91988444546039555462E04360C2A
:1019D0002F0C35004543784381463800A8462D0C2E
:1019E000AA46009A504372434A445244914503D94F
:1019F00080256D02A9464844150CA94645462D048C
:101A00002D0CA84665467D43120448449044A946DF
:101A10003200654662436E437C43170C3619BF198A
:101A2000BC4203D980246402A446E144029C039E84
:101A3000A446059D66448E428941AC4612043C048E
:101A4000120CA2186244494254184644A446464522
:101A5000A44182466442A046AA4292418C458941F3
:101A6000E244D044494252420A43A045A44182453F
:101A70008941644249420C4341463F0CD219121934
:101A8000CC0D049970020843411E884141464A44E6
:101A9000F60D52023043490214430843D20135D5B2
:101AA0000122430802401343E0071843640834E668
:101AB000009BA2469B4681468024534624031C4338
:101AC00024034A462E4B240BECE500F087FC15233B
:101AD0009C4684440200634620321C2B00DC84E6D2
:101AE000002399462300083883409A468EE600F08A
:101AF00075FC02000300153220331C2A00DC4EE680
:101B000002003400083A0020944052E6019304E6B3
:101B10001C4B21009C460300019DD3406544A94015
:101B200019430300AB40581E834119430800D440B9
:101B30004B0709D00F230B40042B05D00B1D8B4204
:101B40008041404224181800230200D4D6E6012325
:101B500000240022A6E50F29AAD1802352461B03A8
:101B60001A42A9D01C42A7D11C43009B02009B46ED
:101B7000034B97E50024C1E60024014B220091E5C8
:101B8000FF0700001E040000F0B54E464546DE4645
:101B90005746E0B585B0009001910C034F00CE0F81
:101BA000610A009CB046640F0C4300997F0DC80089
:101BB00011001A001B039C460091019251004B0D2D
:101BC0009946019B009DD90F63466A0F5B0A134338
:101BD000EA0094469346C14A03900293914500D18E
:101BE000CDE0012569404D467D1BAA468E4200D1BD
:101BF00080E0002D00DC35E34946002900D1DFE01C
:101C0000974200D194E152460125382A19DC8022FE
:101C1000029B12041343029352461F2A00DDE3E1A4
:101C2000534620226146029DD21A9540D9400D4369
:101C3000614691400A00511E8A411543029ADA40DA
:101C4000A41A451BA84280414042241A230200D412
:101C50003DE16402640A002C00D147E1200000F05D
:101C6000BDFB0300083B20212800CA1AD0409C403D
:101C700002009D4022439F4200DD77E1D81B0130E6
:101C8000091A2C008D40C4406B1E9D411300C240B8
:101C90008B402543002714001D436B0709D00F23F9
:101CA0002B40042B05D02B1DAB42AD416D42641976
:101CB0001D00230200D440E1884A0137974200D139
:101CC00001E1012643468649ED0821404A072A439F
:101CD0007C054D022D0B640D1E4024052C43F60798
:101CE00034431000210005B0F0BCBB46B246A94603
:101CF000A046F0BD002D00DCD0E24946002900D00E
:101D0000D4E06146029B194300D12BE1691E012DED
:101D100000D1D9E1954200D10AE10125382917DC2B
:101D20008A4653461F2B00DDE7E12022D21A029B90
:101D3000614693401D005346D940634693401A00C4
:101D40000D43511E8A4153461543029ADA40A418A6
:101D50002D188542804140422418230200D4B6E069
:101D60005E4B01379F4200D1ADE001215C4B6A0818
:101D70001C4029400A43E507154364088DE7594A8A
:101D8000029B92466246BA441A432CD08E422ED011
:101D90005246002A60D0002F00D1DBE063460E00DF
:101DA000029CD80862070243E4081300234300D1D1
:101DB00054E280252D0325432D03484C2D0B8CE741
:101DC0006146029B194300D1CCE029000139012D65
:101DD00000D188E1954200D1AAE00125382900DD33
:101DE0002FE78A4618E7012251408E42D0D1534650
:101DF000002B00D1BEE0002F00D038E1CA462200FF
:101E0000024300D1E2E15346591E012B00D10DE2FD
:101E1000324A924500D1D2E10127382913DC1F292B
:101E200000DDEEE12022029B521A250007009A46AF
:101E3000CC4090409540CF40A244421E9041534632
:101E40002F43074302933D00654465459241029B41
:101E500052424F46D41880E7234A7D1C154200D0D9
:101E6000AAE062462500029B05431A43002F00D0DA
:101E7000F5E0002D00D16BE1002A00D152E163466C
:101E8000C51A029BE21AA8429B415B42D31A1A026E
:101E900000D4D5E163461D1AAC4592410126029B50
:101EA00052421C1B8846A41A0E40F6E697423FD0C9
:101EB00052460125382A00DD4AE78022029B12049F
:101EC000134302932DE73C000025002205E707237A
:101ED0002B40002B00D0E2E66BE0C046FF0700007D
:101EE000FFFF7FFF01F8FFFFFE070000280000F062
:101EF00075FA030018331F2B00DCB4E62A000838FB
:101F000082409F4200DDB9E0DB1B581C1F2800DC2B
:101F1000A0E115001F3BDD40202805D040231B1AFF
:101F20009A40531E9A411543072300272B40D0E7C0
:101F3000C00862070243E40837E7EA0863071A4368
:101F4000D34BE4089F4200D12FE72403250B7C05E7
:101F5000640DC2E6CA462200024358D163460E0011
:101F6000029C0393039B5746DA08E7E7C94CFF1A24
:101F7000144092E6C84D7A1C2A4200D084E0220028
:101F80000243002F00D0EFE0002A00D1E5E06246D6
:101F900002990A4300D1C5E06346C5188C468542C4
:101FA0008041644440422418230202D5B94B0137D2
:101FB0001C40BA460395D5E76246851AA84292416D
:101FC00052429146029BE31A1A004B46D21A130062
:101FD00091461A026CD44A464C462A4300D03AE64F
:101FE00000260024002578E6029953460D00203A89
:101FF000D540202B06D04022D21A0B0093406246D7
:102000001A4393465B465A1E93411D4319E65346B5
:102010005A1E012B00D1C6E09D4EB24500D1BDE64F
:1020200088460E000125382A10DC1F2A7FDC20217B
:102030002500891A070088408D40D740D440411EB2
:102040008841029B3D431B1B054302936246551B7F
:10205000AC459241029B52424F469C1AF6E5002D38
:1020600000D0B7E0002A00D1F0E001260E40634620
:102070000298D90842070A43C40896E6854CFF1A1D
:1020800014406207E40860E781498A4200D1C9E050
:102090006346C11881428041029B4042E3181B18ED
:1020A000DD075C08072349080D4317002B4010E7A4
:1020B00063461D1AAC4592410126029B52421C1BED
:1020C0008846A41A0E40C6E56346C518029B8542A1
:1020D00080419C464042644424180127230200D4D6
:1020E000F5E6022741E66346C51AA8428041029BF5
:1020F0004042E41A0127241AA8E5029D52462B000B
:10210000203AD34019005346202B06D04022D21A41
:102110002B00934062461A4393465D466B1E9D41D9
:102120000D4315E66207C0080243E4080DE71100FD
:1021300027002039CF40202A05D040218A1A944018
:10214000250005430395039D6A1E95413D437DE7A8
:10215000002A00D144E701260E406346D908029BBD
:102160005A070A43DC08F0E6002A28D06246029F9C
:10217000C0083A4300D1DCE6620710438022E4083D
:102180001203144209D0FD08154206D16346012608
:102190002C00D8087B0718430E40420FC000C0082F
:1021A0005207024301E663461D1AAC459241029B69
:1021B00052421C1B0E0088460127A41A46E56346BE
:1021C000D908029B5A070A43DC08EEE56346029CE5
:1021D0000393C7E6C008002A00D1AAE662071043AD
:1021E0008022E40812031442D7D0029FFD08154252
:1021F000D3D163460126D8087B072C0018430E4034
:10220000CBE70A002700203AD740202905D04022FA
:10221000521A9440250005430395039D6A1E95417B
:102220002F4310E614000025002256E5029B60446F
:102230009946604592414C4452420500A4184CE72F
:102240001A001C002A4300D0B3E6C9E68024002609
:102250002403AEE520210025091A17E500220025F8
:102260000B4C3AE5002D00D1F6E54B46DA1B9246C1
:10227000002F00D16FE6382A05DC8026360434436F
:1022800088460E00D1E688460E000125DEE6C046EF
:10229000FF070000FFFF7FFFFE070000002D00D1B9
:1022A00068E64B46D91B002F01D18A46A7E50127D6
:1022B000382900DDC7E5802212041443AFE5C0468B
:1022C0000B00020070B5164D0C0382B049000020CF
:1022D00000920193240B490DDE0FA94204DD114841
:1022E000814203DD104BF01802B070BD8020400326
:1022F00020430E4C641A1F2C08DD0D4B5B1AD8408E
:1023000003005842002EEFD11800EDE7094B009A68
:102310009C46030061448B40E2401343F1E7C04612
:10232000FE0300001D040000FFFFFF7F33040000D8
:1023300013040000EDFBFFFF70B5002816D0C31793
:10234000C5185D40C40F280000F048F8104B1B1A58
:102350005B055B0D0A2814DC02002E001532964046
:102360000B22121AD5402D032D0B03E0002400236D
:10237000002500261B052B43E407234330001900EA
:1023800070BD0B3885402D0300262D0BF2E7C046AB
:102390001E04000010B5041E10D000F01FF80E4BF4
:1023A0001B1A5B055B0D0A280FDC0B222100121A99
:1023B000D14015300A038440120B01E000230022B3
:1023C0001B0513432000190010BD22000B3882406A
:1023D00012030024120BF3E71E0400001C2101234A
:1023E0001B04984201D3000C10391B0A984201D3F8
:1023F000000A08391B09984201D30009043902A2D6
:10240000105C40187047C04604030202010101013C
:10241000000000000000000010B5002903D1FFF704
:10242000DDFF203002E00800FFF7D8FF10BDC046F6
:1024300090B58BB000AF14243B19180014231A0078
:10244000002108F097F96A4BDA6C694B04210A43C2
:10245000DA64674BDB6C042213403B613B69644BDD
:10246000DA6C634B20210A43DA64614BDB6C202277
:102470001340FB60FB685E4BDA6C5D4B01210A4345
:10248000DA645B4BDB6C01221340BB60BB68584BCA
:10249000DA6C574B02210A43DA64554BDB6C02229B
:1024A00013407B607B6888235900A023DB05012251
:1024B000180001F0B3F93B19E02212021A603B192F
:1024C00003225A603B1900229A603B19494A1900BD
:1024D000100000F045FF3B190F221A603B19032240
:1024E0005A603B1900229A603B19434A19001000B8
:1024F00000F036FF3B19414A1A603B1903225A602B
:102500003B1900229A603A19A023DB05110018003C
:1025100000F026FF3B1908221A603B19882252035B
:102520005A603B1900229A603A19A023DB0511007A
:10253000180000F015FF21007B18882252001A6055
:102540000C003B1901225A603B1900229A603B198A
:102550000022DA603A19A023DB051100180000F010
:10256000FFFE3B19264A1A603B1903225A603B19A9
:1025700000229A603B19234A1900100000F0F0FE77
:102580003B19802292001A603B1900225A603B19C5
:1025900000229A603A19A023DB051100180000F010
:1025A000DFFE21007B18802212011A607B18842232
:1025B00092035A607B1800229A607A18A023DB05E8
:1025C0001100180000F0CCFE00220021062000F0CF
:1025D0007DFE062000F09AFE00220021072000F078
:1025E00075FE072000F092FEC046BD460BB090BDC0
:1025F0000010024000080050001400500794000032
:102600003FFF00000004005090B58DB00AAF00F00D
:1026100014FD00F081F9FFF70BFF00F0FDFA00F068
:1026200033FCA64B180005F003FC07F04FFD3B1DE3
:1026300000221A80391DE823DB000222180007F06F
:1026400093FE9F4B18683B1D1B881A009D4B190079
:1026500005F0FCFB9C4B9D4A1A609B4B9C4A9A6080
:102660009C4B1B68984A100098479A4B1B699A4AE2
:1026700010009847974B1C6A002308930023079388
:10268000002306930023059301230493002303935F
:1026900008230293012301930723009300230022C0
:1026A00016210120A0478B4BDC69012309930023ED
:1026B0000893002307930023069301230593002327
:1026C0000493002303930023029308230193002320
:1026D00000930123072200210120A047784B1B68AB
:1026E0007E4A1100180005F0B1FB7A4B9B6B00206D
:1026F0009847784B9B6E9847794B1B78DBB2012B40
:1027000035D1774B00221A70764B1B78DBB2012B48
:1027100018D1754BFF221A70734B03225A70724BFB
:1027200001229A70704B0A22DA706F4B0122DA7222
:1027300000F098F9624B1B686C4A1100180005F014
:102740006FFC14E0684B74221A70674B05225A70B4
:10275000654B00229A70644B0122DA7200F082F914
:10276000574B1B68624A1100180005F059FC5E4B7C
:10277000DB7A012B18D15C4B1B7B002B14D100F0B2
:10278000CDFC02005B4B1B68D31A5B4A93420BD90A
:102790004B4B1868544B1B781A00584B190005F026
:1027A000F1FB514B0022DA72554B1B78012BA0D163
:1027B000534B47229B5C062B44D04BDC022B02DCA4
:1027C000002B13DC46E0042B44D1474B0022DA7285
:1027D000454B01221A733A4B1868494B46229B5CC1
:1027E0001A00484B190005F031FB34E0344B1868EF
:1027F000434B46229B5C1C00414B48229B5C424958
:10280000220005F071FBFB1D00221A7012E02C4B18
:102810001868FB1D1B783A4A4921D3185B181B78AE
:102820001A003A4B190005F011FBFB1D1A78FB1D2D
:1028300001321A70324B48229B5CFA1D12789A4280
:10284000E5D308E01E4B1B68314A1100180005F063
:10285000FDFA00E0C0462A4B51229B5C012B18D1A7
:10286000274B46229A5C204B1A701F4B04225A7049
:102870001D4B00229A701C4B0022DA7200F0F2F815
:102880000F4B1868184B1B781A00224B190005F0E3
:10289000C7FB1B4B00221A70194B4522002199548B
:1028A000174B462200219954154B47220021995479
:1028B000134B4822002199541BE7C046392A0008CF
:1028C0000000002028B20008C8010020012B0008E9
:1028D000192B000824B80008C0DC03373CB20008FC
:1028E000E8010020E90100200400002050B20008A7
:1028F00074B200084002002088130000A4B200084F
:10290000EC010020C4B20008E4B2000814B30008CF
:1029100018B3000834B3000890B597B000AF102486
:102920003B19180048231A00002107F023FF3B0041
:10293000180010231A00002107F01CFF80239B00C1
:10294000180000F0CFFF21007B1810221A607B18BE
:102950000122DA617B1800221A627B18B0225A62C7
:102960007B1800229A627B18180001F039F8031EC8
:1029700001D000F041F93B0007221A603B00002221
:102980005A603B0000229A603B000022DA603B0064
:102990000121180001F0A8FD031E01D000F02CF960
:1029A000C046BD4617B090BD80B582B000AF0200F2
:1029B000BB1D1A80BB1D1B88082B01D106F022FB12
:1029C000C046BD4602B080BD80B584B000AF0200F5
:1029D000BB1D1A80BB1D1A8880231B019A4220D17F
:1029E0000023FB6003E0C046FB680133FB60FB682B
:1029F0000E4A9342F7D980231A01A023DB05110068
:102A0000180000F0DFFE031E0BD1094B01221A70E3
:102A1000084B1B78DBB25A425341DBB21A00054B1C
:102A20001A70C046BD4604B080BDC046BFD4010088
:102A3000E8010020E901002080B582B000AF786095
:102A40007B681800FDF760FB03009AB2FA239B0035
:102A50007968034804F0AAF9C046BD4602B080BDBB
:102A6000AC02002080B592B000AF224B00221A7356
:102A7000204B1A783B1D1A701E4B5A783B1D5A701A
:102A80001C4BDA7A3B1D9A701A4B9A783B1DDA7010
:102A90004723FB1800221A700FE047203B181A78D2
:102AA0003B181B78043313498A18D1783A1DD15446
:102AB0003B181A783B1801321A700E4B9B7847224C
:102AC000BA1812789A42E8D30A4BDB7A012B04D168
:102AD00000F024FB0200084B1A60084BDB6A054A31
:102AE00092780432D1B23A1D10009847C046BD46D4
:102AF00012B080BD040000204002002024B800086D
:102B000080B500AF034B9B6B00209847C046BD4685
:102B100080BDC04624B80008B0B586B000AFF860EC
:102B20000C00100019000A257B19221C1A800824A9
:102B30003B19021C1A80FB1D0A1C1A702C4B012227
:102B40001A702B4B3A1912885A80294BFA1D1278A9
:102B50001A717B191B88D9B2254B45229954254BF4
:102B600040220021180007F005FE214B45229B5C06
:102B70001A00F9681F4B180007F042FE1C4B5979E8
:102B80001B4B462299541A4B9979194B4722995459
:102B9000174BD979164B51229954154B197A144B6E
:102BA000482299541723FB1800221A7013E01724A7
:102BB0003B191B781A1D3B191B780D498A1850794F
:102BC0000B4A4921D3185B18021C1A703B191A785A
:102BD0003B1901321A70064B48229B5C1722BA1827
:102BE00012789A42E3D3C046C046BD4606B0B0BD97
:102BF000EC010020F101002080B500AF72B6C046A4
:102C0000C046FDE780B582B000AF78603960C0464D
:102C1000BD4602B080BD000080B500AF1B4B1C4A12
:102C20001A601A4B822252005A60184B00229A6096
:102C3000164BE022D200DA60144B00221A61134BCB
:102C400000225A61114B802292009A610F4B082298
:102C5000DA610E4B00221A620C4B00225A620B4BB7
:102C600000229A62094B0722DA62084B00221A639B
:102C7000064B08225A63054B180002F035FF031E6D
:102C800001D0FFF7B9FFC046BD4680BD4402002019
:102C90000030014090B58BB000AF786014243B1930
:102CA000180014231A00002107F064FD7B681B68DC
:102CB0001B4A934230D11B4B1A6E1A4B802149019B
:102CC0000A431A66174B1A6E80235B0113403B615F
:102CD0003B69144BDA6C134B01210A43DA64114B44
:102CE000DB6C01221340FB60FB6821007B18E022B3
:102CF0001A607B1802225A607B1800229A607B18A7
:102D00000022DA607B1805221A617A18A023DB05FD
:102D10001100180000F024FBC046BD460BB090BD6A
:102D2000003001400010024080B582B000AF0F4B70
:102D30009A6D0E4B802149050A439A650B4B9A6D9B
:102D400080235B0513407B607B68084B1A6E074B42
:102D500001210A431A66054B1B6E012213403B609A
:102D60003B68C046BD4602B080BDC0460010024070
:102D700080B500AFC046FDE780B500AFC046FDE7B7
:102D800080B500AFC046BD4680BD80B500AFC0462F
:102D9000BD4680BD80B500AF00F0B0F9C046BD466D
:102DA00080BD80B500AF082000F072FDC046BD4672
:102DB00080BD80B500AF80231B01180000F068FDC6
:102DC000C046BD4680BD000080B586B000AF7860CB
:102DD000144A154BD31A7B617B693B61134B1B680B
:102DE000002B02D1114B124A1A60104B1A687B68F3
:102DF000D3183A699A4207D207F0D6FC03000C2296
:102E00001A6001235B4209E0084B1B68FB60074B1B
:102E10001A687B68D218054B1A60FB681800BD461B
:102E200006B080BD0020002000040000A8020020A1
:102E30002006002080B500AF114B802212059A6059
:102E4000104A8023D25880235B021A4080235B0201
:102E50009A4212D10B4B1B6AFF221340CC2B0CD091
:102E6000084B1B6AFF221340AA2B06D0054B1A6899
:102E7000044B8021C9020A431A60C046BD4680BD8A
:102E800000ED00E00020024080B500AF234B244A53
:102E90001A60224BE12252025A60204B00229A60B3
:102EA0001E4B0022DA601D4B00221A611B4B0C22C4
:102EB0005A611A4B00229A61184B0022DA61174BB3
:102EC00000221A62154B00225A62144B00229A62A9
:102ED000124B180003F0B6FE031E01D0FFF78CFE64
:102EE0000E4B0021180004F031FE031E01D0FFF745
:102EF00083FE0A4B0021180004F0B0FE031E01D02F
:102F0000FFF77AFE054B180004F0C0FD031E01D048
:102F1000FFF772FEC046BD4680BDC046AC02002031
:102F20000038014090B599B000AF78604C23FB1891
:102F3000180014231A00002107F01CFC14243B196C
:102F4000180038231A00002107F014FC7B681B6866
:102F5000224A93423DD13B1901221A603B190022BB
:102F60005A603B19180001F083FD031E01D0FFF7E2
:102F700043FE1B4B1A6E1A4B8021C9010A431A6685
:102F8000174B1A6E8023DB0113403B613B69144BE6
:102F9000DA6C134B02210A43DA64114BDB6C022218
:102FA0001340FB60FB684C217B18C0221A607B1821
:102FB00002225A607B1800229A607B180022DA6095
:102FC0007B1807221A617B18064A1900100000F0CE
:102FD000C7F9C046BD4619B090BDC0460038014093
:102FE00000100240000400500D488546FFF722FF04
:102FF0000C480D490D4A002302E0D458C450043354
:10300000C4188C42F9D30A4A0A4C002301E0136029
:103010000432A242FBD307F0CDFBFFF7F5FAFEE73F
:103020000020002000000020AC010020B0B9000802
:10303000AC0100201C060020FEE780B582B000AF86
:10304000FB1D00221A70032000F00EF8031E03D0AF
:10305000FB1D01221A7001E0FFF766FEFB1D1B78C5
:103060001800BD4602B080BD90B585B000AF786055
:103070000F23FB1800221A701D4B1B68002B2BD04E
:103080001C4B1C681A4B1B681900FA239800FDF7AB
:103090004DF8030019002000FDF748F80300180060
:1030A00000F050F9031E12D17B68032B0AD879680F
:1030B00001235B420022180000F008F90E4B7A68E9
:1030C0001A600DE00F23FB1801221A7008E00F238D
:1030D000FB1801221A7003E00F23FB1801221A705B
:1030E0000F23FB181B781800BD4605B090BDC046E5
:1030F0001C000020140000201800002080B500AF44
:10310000044B1A68044B1B68D218024B1A60C04665
:10311000BD4680BD400300201C00002080B500AFEC
:10312000024B1B681800BD4680BDC046400300200E
:1031300080B584B000AF7860FFF7F0FF0300BB609C
:103140007B68FB60FB68013304D0094B1B68FA689D
:10315000D318FB60C046FFF7E1FF0200BB68D31A3B
:10316000FA689A42F7D8C046C046BD4604B080BD52
:103170001C00002080B582B000AF0200FB1D1A7059
:10318000FB1D1B787F2B09D8FB1D1B781A001F2302
:103190001A40044B012191400A001A60C046BD4606
:1031A00002B080BD00E100E090B583B000AF020046
:1031B0003960FB1D1A70FB1D1B787F2B28D82F4A06
:1031C000FB1D1B785BB29B08C0339B009B58FA1D0C
:1031D0001278110003220A40D200FF2191400A0018
:1031E000D2431A4011003B689B01FF221A40FB1D8D
:1031F0001B78180003230340DB009A401F48FB1D87
:103200001B785BB29B080A43C0339B001A5031E025
:103210001B4AFB1D1B7819000F230B40083B9B0822
:1032200006339B00D31804331B68FA1D1278110073
:1032300003220A40D200FF2191400A00D2431A40E3
:1032400011003B689B01FF221A40FB1D1B781800F0
:1032500003230340DB009A400948FB1D1B781C0038
:103260000F232340083B9B080A4306339B00C318E7
:1032700004331A60C046BD4603B090BD00E100E0D3
:1032800000ED00E080B582B000AF78607B685A1E28
:1032900080235B049A4201D3012310E00A4B7A6831
:1032A000013A5A6001235B4203211800FFF77CFFBB
:1032B000054B00229A60044B07221A600023180075
:1032C000BD4602B080BDC04610E000E080B584B0CD
:1032D00000AFB9607A600F23FB18021C1A70BB683C
:1032E000032B04D9084B87211800FFF78BFCBA6821
:1032F0000F23FB181B785BB211001800FFF754FF77
:10330000C046BD4604B080BD50B3000880B582B051
:1033100000AF0200FB1D1A70FB1D1B787F2B04D928
:10332000074B96211800FFF76DFCFB1D1B785BB265
:103330001800FFF71FFFC046BD4602B080BDC04663
:1033400050B3000880B582B000AF78607B68180089
:10335000FFF798FF03001800BD4602B080BD0000D3
:1033600080B586B000AF7860396000237B617A68F1
:10337000A023DB059A4214D07B68CF4A934210D039
:103380007B68CE4A93420CD07B68CD4A934208D0EA
:103390007B68CC4A934204D0CB4BA3211800FFF7A3
:1033A00031FC3B681B681B041B0C05D03B681A688A
:1033B00080235B029A4204D3C34BA4211800FFF779
:1033C00021FC3B685B68002B00D1ECE13B685B684B
:1033D000012B00D1E7E13B685B68112B00D1E2E1F2
:1033E0003B685B68022B00D1DDE13B685B68122B18
:1033F00000D1D8E13B685A6888235B039A4200D128
:10340000D1E13B685A6884239B039A4200D1CAE108
:103410003B685A68C4239B039A4200D1C3E13B68CE
:103420005A6890235B039A4200D1BCE13B685A681A
:1034300088239B039A4200D1B5E13B685A68C823B0
:103440009B039A4200D1AEE13B685B68032B00D13D
:10345000A9E19D4BA5211800FFF7D4FBA3E13B6830
:103460001B6801217A6991400A001340FB60FB68E8
:10347000002B00D194E13B685B6803221340012BD1
:1034800005D03B685B6803221340022B45D13B68A3
:10349000DB68002B10D03B68DB68012B0CD03B684D
:1034A000DB68022B08D03B68DB68032B04D0864B1B
:1034B000B4211800FFF7A6FB7B689B683B617B6922
:1034C0005B0003229A401300DA433B6913403B61DF
:1034D0003B68DA687B695B009A4013003A691343E2
:1034E0003B617B683A699A607B685B683B6101225B
:1034F0007B699A401300DA433B6913403B613B68A8
:103500005B681B0901221A407B699A4013003A69E3
:1035100013433B617B683A695A603B685B680322EE
:103520001340032B28D03B689B68002B0CD03B68D2
:103530009B68012B08D03B689B68022B04D0624B30
:10354000C6211800FFF75EFB7B68DB683B617B6987
:103550005B0003229A401300DA433B6913403B614E
:103560003B689A687B695B009A4013003A69134391
:103570003B617B683A69DA603B685B680322134011
:10358000022B46D17A68A023DB059A4214D07B68CF
:10359000494A934210D07B68484A93420CD07B68DA
:1035A000474A934208D07B68464A934204D0464B30
:1035B000D3211800FFF726FB3B681B690F2B04D9AA
:1035C000414BD4211800FFF71DFB7B69DA087B68AB
:1035D00008329200D3583B617B69072213409B005D
:1035E0000F229A401300DA433B6913403B613B686A
:1035F0001A697B6907210B409B009A4013003A69C6
:1036000013433B617B69DA087B68083292003969B1
:10361000D1507B681B683B617B695B0003229A4049
:103620001300DA433B6913403B613B685B6803224C
:103630001A407B695B009A4013003A6913433B616F
:103640007B683A691A603B685A68C0239B02134042
:1036500000D1A5E01D4A7B699B0818339B009B584D
:103660003B617B6903221340DB000F229A40130069
:10367000DA433B6913403B617A68A023DB059A4239
:1036800026D07B680C4A934213D07B680B4A934246
:103690000DD07B680A4A934207D07B68094A93425F
:1036A00001D1052315E0062313E0032311E00223D3
:1036B0000FE001230DE0C046000400500008005058
:1036C000000C0050001400508CB300080018024099
:1036D00000237A6903210A40D20093403A691343D8
:1036E0003B6137497B699B0818339B003A695A5004
:1036F000334B1B683B61FB68DA433B6913403B611A
:103700003B685A6880235B03134003D03A69FB6827
:1037100013433B612A4B3A691A60294B5B683B6152
:10372000FB68DA433B6913403B613B685A6880237E
:103730009B03134003D03A69FB6813433B61204B62
:103740003A695A601E4A8423D3583B61FB68DA43C6
:103750003B6913403B613B685A6880239B021340DE
:1037600003D03A69FB6813433B61154984223B69E6
:103770008B50134A8023D3583B61FB68DA433B6983
:1037800013403B613B685A6880235B02134003D0BF
:103790003A69FB6813433B61094980223B698B50BE
:1037A0007B6901337B613B681A687B69DA40131ED1
:1037B00000D054E6C046C046BD4606B080BDC046F7
:1037C0000018024080B584B000AF78600A00BB1CCE
:1037D0001A80BB1C1B88002B07D17223FF331A00F1
:1037E0000D4B11001800FFF70DFA7B681B69BA1C1E
:1037F0001288134004D00F23FB1801221A7003E033
:103800000F23FB1800221A700F23FB181B781800D7
:10381000BD4604B080BDC0468CB3000880B582B000
:1038200000AF786008001100BB1C021C1A807B1CD2
:103830000A1C1A70BB1C1B88002B07D19223FF3374
:103840001A00124B11001800FFF7DCF97B1C1B78E3
:10385000002B0AD07B1C1B78012B06D0C9235A00F1
:103860000A4B11001800FFF7CDF97B1C1B78002BC9
:1038700004D0BB1C1A887B689A6103E0BB1C1A88C1
:103880007B689A62C046BD4602B080BD8CB300081A
:1038900080B582B000AF0200BB1D1A80104BDB6800
:1038A000BA1D1288134008D00D4BBA1D1288DA6079
:1038B000BB1D1B881800FFF777F8094B1B69BA1D61
:1038C0001288134008D0064BBA1D12881A61BB1D1E
:1038D0001B881800FFF778F8C046BD4602B080BDCF
:1038E0000018024080B584B000AF78607A68802309
:1038F0009B009A4209D07A688023DB009A4204D068
:103900002C4BC3211800FFF77DF97A6880239B00B8
:103910009A4237D1284B1A68C023DB001A40802313
:103920009B009A4240D0244B1B68244A1A40224BE9
:10393000802189000A431A60214B1B6832225343BD
:1039400020491800FCF7F2FB03000133FB6002E0A2
:10395000FB68013BFB60184B5A698023DB001A406F
:103960008023DB009A4202D1FB68002BF0D1124B7E
:103970005A698023DB001A408023DB009A4213D16E
:10398000032312E00C4B1A68C023DB001A4080238B
:10399000DB009A4208D0084B1B68084A1A40064BC5
:1039A0008021C9000A431A6000231800BD4604B0F4
:1039B00080BDC046C8B3000800700040FFF9FFFF9B
:1039C0001400002040420F0080B500AF034B1A687E
:1039D000C023DB0013401800BD4680BD00700040CE
:1039E000B0B588B000AF78607B68002B07D14E235C
:1039F000FF331A00BD4B11001800FFF703F97B6875
:103A00001B68002B1FD07B681B68012213401AD152
:103A10007B681B680222134015D17B681B6810224B
:103A2000134010D17B681B68082213400BD17B68C0
:103A30001B680422134006D1A7235A00AB4B110088
:103A40001800FFF7DFF8AA4B9B6838221340BB61D0
:103A5000A74BDB68032213407B617B681B68102245
:103A6000134000D14FE17B68DB69002B0BD07B68F2
:103A7000DB69012B07D05823FF331A009B4B110041
:103A80001800FFF7BFF87B681B6AFF2B06D9AC2331
:103A90005A00964B11001800FFF7B4F87B685B6A78
:103AA000002B33D07B685B6A102B2FD07B685B6A5E
:103AB000202B2BD07B685B6A302B27D07B685B6A1E
:103AC000402B23D07B685B6A502B1FD07B685B6ADE
:103AD000602B1BD07B685B6A702B17D07B685B6A9E
:103AE000802B13D07B685B6A902B0FD07B685B6A5E
:103AF000A02B0BD07B685B6AB02B07D05A23FF3317
:103B00001A007A4B11001800FFF77CF8BB69002BF4
:103B100007D0BB69182B00D093E07B69012B00D044
:103B20008FE0734B1B680222134006D07B68DB6971
:103B3000002B02D1012300F0BFFC7B685A6A6C4B5A
:103B40001B6808210B4004D0694B1B68F0210B4017
:103B500005E067499423CB581B09F0210B409342A1
:103B600025D27B685B6A180000F016FF031E02D0A6
:103B7000012300F0A1FC5E4B1A685D4B08210A434B
:103B80001A605B4B1B68F022934319007B685A6AEA
:103B9000574B0A431A60564B5B68564A134019004C
:103BA0007B681B6A1A02524B0A435A6027E0504B4B
:103BB0001A684F4B08210A431A604D4B1B68F022CC
:103BC000934319007B685A6A494B0A431A60484B71
:103BD0005B68484A134019007B681B6A1A02444B11
:103BE0000A435A60BB69002B09D17B685B6A1800E5
:103BF00000F0D2FE031E02D0012300F05DFC00F0B5
:103C00000DFE01003A4B9B681B0A0F2213403A4AF3
:103C1000D35C1A001F2313400A00DA40374B1A60A6
:103C2000374B1B680F257C191800FFF71DFA03009E
:103C300023707B191B78002B64D07B191B7800F054
:103C40003BFC7B68DB69002B35D0294B1A68284B7D
:103C500001210A431A60FFF761FA03003B6109E0A2
:103C6000FFF75CFA02003B69D31A022B02D9032347
:103C700000F022FC1E4B1B6802221340F0D01C4BAC
:103C80001A681B4B08210A431A60194B1B68F02263
:103C9000934319007B685A6A154B0A431A60144B08
:103CA0005B68144A134019007B681B6A1A02104BA8
:103CB0000A435A6027E00E4B1A680D4B01218A43D4
:103CC0001A60FFF72BFA03003B6109E0FFF726FAC1
:103CD00002003B69D31A022B02D9032300F0ECFB4C
:103CE000034B1B6802221340F0D10CE004B400081F
:103CF00000100240FF00FFFF30B700081400002052
:103D000018000020C0467B681B680122134000D1C8
:103D10007FE07B685B68002B12D07B685A68802349
:103D20005B029A420CD07B685A68A023DB029A425D
:103D300006D0E3235A00B24B11001800FEF762FFD1
:103D4000BB69102B05D0BB69182B0FD17B69032BE6
:103D50000CD1AC4B1A6880239B02134058D07B686F
:103D60005B68002B54D1012300F0A6FB7B685A68E6
:103D700080235B029A4207D1A24B1A68A14B802193
:103D800049020A431A6013E07B685A68A023DB02E9
:103D90009A4207D19B4B1A689A4BA021C9020A4349
:103DA0001A6005E0974B1A68964B97490A401A60CB
:103DB0007B685B68002B15D0FFF7B0F903003B610F
:103DC00009E0FFF7ABF902003B69D31A642B02D973
:103DD000032300F071FB8B4B1A6880239B02134076
:103DE000EFD016E0FFF79AF903003B6109E0FFF717
:103DF00095F902003B69D31A642B02D9032300F022
:103E00005BFB804B1A6880239B021340EFD100E0DC
:103E1000C0467B681B680222134000D182E07B68A9
:103E2000DB68002B0CD07B68DA6880235B009A4249
:103E300006D0FC235A00724B11001800FEF7E2FE78
:103E40007B681B697F2B07D9FA23FF331A006C4B61
:103E500011001800FEF7D6FEBB69082B05D0BB6920
:103E6000182B1AD17B69022B17D1664B1A68802355
:103E7000DB00134005D07B68DB68002B01D10123F8
:103E80001AE3604B5B68614A134019007B681B6949
:103E90001A065C4B0A435A6044E07B68DB68002BDF
:103EA00026D0584B1A68574B802149000A431A60A4
:103EB000FFF734F903003B6108E0FFF72FF9020038
:103EC0003B69D31A022B01D90323F5E24D4B1A6843
:103ED0008023DB001340F0D04A4B5B684B4A134011
:103EE00019007B681B691A06464B0A435A6019E0A1
:103EF000444B1A68434B46490A401A60FFF70EF9D3
:103F000003003B6108E0FFF709F902003B69D31A9F
:103F1000022B01D90323CFE23A4B1A688023DB003E
:103F20001340F0D17B681B680822134000D17BE06E
:103F30007B685B69002B09D07B685B69012B05D02E
:103F4000344A2F4B11001800FEF75CFE7B689B691A
:103F5000002B09D07B689B69042B05D02E4A284B87
:103F600011001800FEF74EFE7B685B69002B31D014
:103F70007B689B69002B08D1224A9423D35821499E
:103F80000422934394228B5007E01E4A9423D35873
:103F90001C490422134394228B501A4A9423D35869
:103FA00018490122134394228B50FFF7B7F80300FE
:103FB0003B6108E0FFF7B2F802003B69D31A112B0E
:103FC00001D9032378E20F4A9423D35802221340E5
:103FD000F0D029E00B4A9423D3580A490122934395
:103FE00094228B50FFF79AF803003B6116E0FFF72D
:103FF00095F802003B69D31A112B0FD903235BE21A
:1040000004B4000800100240FFFFFAFFFFFFFF802A
:10401000FFFEFFFF390200003A0200008C4A9423A1
:10402000D35802221340E2D17B681B68042213405C
:1040300000D127E11F23FB1800221A707B689B68C0
:10404000002B16D07B689B68812B12D07B689B6805
:10405000012B0ED07B689B68052B0AD07B689B6880
:10406000852B06D09C239A007A4B11001800FEF78E
:10407000C9FD774B9A6D80235B05134011D1744BBA
:104080009A6D734B802149050A439A65704B9A6D6E
:1040900080235B051340BB60BB681F23FB18012214
:1040A0001A706D4B1A6880235B0013401AD16A4B5B
:1040B0001A68694B802149000A431A60FFF72EF8FD
:1040C00003003B6108E0FFF729F802003B69D31ABF
:1040D000022B01D90323EFE15F4B1A6880235B00B9
:1040E0001340F0D07B689B68012213401ED07B6890
:1040F0009B680422134010D0554A9023D35854494A
:104100000422134390228B50514A9023D358504994
:104110000122134390228B5018E04D4A9023D3582C
:104120004B490122134390228B500FE0484A9023C1
:10413000D35847490122934390228B50444A9023FD
:10414000D35843490422934390228B507B689B6849
:10415000002B4FD0FEF7E2FF03003B6109E0FEF7C2
:10416000DDFF02003B69D31A3C4A934201D9032385
:10417000A2E1374A9023D35802221340EFD07B6844
:104180009B68802213401AD0314A9023D35830497B
:104190008022134390228B5009E0FEF7BFFF0200FC
:1041A0003B69D31A2D4A934201D9032384E1284A5B
:1041B0009023D25880231B011340EED057E0244AAD
:1041C0009023D35822498022934390228B5009E0B8
:1041D000FEF7A4FF02003B69D31A204A934201D99B
:1041E000032369E11A4A9023D25880231B0113400C
:1041F000EED13CE0FEF792FF03003B6109E0FEF7E1
:104200008DFF02003B69D31A144A934201D903235C
:1042100052E10F4A9023D35802221340EFD10C4AA7
:104220009023D3588022134021D0094A9023D35899
:1042300007498022934390228B5011E0FEF76EFFD6
:1042400002003B69D31A054A934209D9032333E19B
:104250000010024004B40008007000408813000001
:10426000974A9023D25880231B011340E6D11F2385
:10427000FB181B78012B05D1914B9A6D904B9149FE
:104280000A409A657B689B6A002B0DD07B689B6A0D
:10429000012B09D07B689B6A022B05D08A4A8B4B85
:1042A00011001800FEF7AEFC7B689B6A002B00D162
:1042B00001E1834B9B6838221340182B00D1F8E0B2
:1042C0007B689B6A022B00D0D8E07B68DB6A012BFD
:1042D00012D07B68DB6A022B0ED07B68DB6A002B76
:1042E0000AD07B68DB6A032B06D0CA239A00774B7F
:1042F00011001800FEF786FC7B681B6B002B21D099
:104300007B681B6B102B1DD07B681B6B202B19D07F
:104310007B681B6B302B15D07B681B6B402B11D03F
:104320007B681B6B502B0DD07B681B6B602B09D0FF
:104330007B681B6B702B05D0654A644B110018001D
:10434000FEF760FC7B685B6B032B03D97B685B6BC0
:104350007F2B05D95F4A5D4B11001800FEF752FC18
:104360007B689A6B80239B029A4205D37B689A6B89
:10437000F8239B039A4205D9574A544B1100180061
:10438000FEF740FC7B68DA6B80239B049A4205D3DE
:104390007B68DA6BE0231B059A4206D9CB239A008F
:1043A0004A4B11001800FEF72DFC7B681A6C802325
:1043B0009B059A4205D37B681A6CE0231B069A4240
:1043C00005D9464A414B11001800FEF71BFC3C4B37
:1043D0001A683B4B42490A401A60FEF79FFE0300F1
:1043E0003B6108E0FEF79AFE02003B69D31A022BFC
:1043F00001D9032360E0324B1A6880239B041340E9
:10440000F0D12F4BDB68374A134019007B68DA6A1A
:104410007B681B6B1A437B685B6B1B021A437B68D0
:10442000DB6B1A437B681B6C1A437B689B6B1A43DC
:10443000234B0A43DA60224BDA68214B802149057D
:104440000A43DA601E4B1A681D4B802149040A4357
:104450001A60FEF763FE03003B6108E0FEF75EFEB4
:1044600002003B69D31A022B01D9032324E0144B29
:104470001A6880239B041340F0D01CE0104B1A688C
:104480000F4B17490A401A60FEF748FE03003B61D4
:1044900008E0FEF743FE02003B69D31A022B01D964
:1044A000032309E0064B1A6880239B041340F0D1D4
:1044B00001E0012300E000231800BD4608B0B0BDB4
:1044C00000100240FFFFFFEF1E03000004B40008CD
:1044D000290300002A0300002B0300002D03000025
:1044E000FFFFFFFE8C80C111B0B584B000AF7860D3
:1044F00039607B68002B06D1DE239A00BB4B11008C
:104500001800FEF77FFB7B681B68DBB2002B04D032
:104510007B681B68DBB21F2B05D9B54AB34B110072
:104520001800FEF76FFB3B68002B0BD03B68012B9C
:1045300008D03B68022B05D0AE4AAC4B11001800E6
:10454000FEF760FBAC4B1B68072213403A689A42A7
:1045500011D9A94B1B68072293431900A64B3A684F
:104560000A431A60A44B1B68072213403A689A4218
:1045700001D0012336E17B681B680122134000D182
:1045800082E07B685B68002B19D07B685B68012B3D
:1045900015D07B685B68022B11D07B685B68032BAE
:1045A0000DD07B685B68042B09D07B685B68052BAA
:1045B00005D0924A8D4B11001800FEF723FB7B6853
:1045C0005B68032B07D18E4B1A6880239B04134032
:1045D00038D1012306E17B685B68022B07D1884B49
:1045E0001A6880239B0213402CD10123FAE07B68D8
:1045F0005B68002B06D1824B1B680222134021D13D
:104600000123EFE07B685B68012B07D17C4B1A68C4
:104610008023DB00134015D10123E3E07B685B6856
:10462000042B07D1764A9423D3580222134009D190
:104630000123D7E0724A9023D3580222134001D1BC
:104640000123CFE06E4B9B680722934319007B68E0
:104650005A686B4B0A439A60FEF760FD0300FB60EB
:1046600009E0FEF75BFD0200FB68D31A654A93423E
:1046700001D90323B6E0624B9B6838221A407B685D
:104680005B68DB009A42ECD17B681B680222134016
:1046900044D07B689B68002B36D07B689A68802367
:1046A0001B019A4230D07B689A6890231B019A4282
:1046B0002AD07B689A68A0231B019A4224D07B6889
:1046C0009A68B0231B019A421ED07B689A68C02367
:1046D0001B019A4218D07B689A68D0231B019A422A
:1046E00012D07B689A68E0231B019A420CD07B6849
:1046F0009A68F0231B019A4206D0F8239A003B4B9C
:1047000011001800FEF77EFA3D4B9B683E4A1340AD
:1047100019007B689A683A4B0A439A60364B1B68CB
:10472000072213403A689A4211D2334B1B68072282
:1047300093431900304B3A680A431A602E4B1B68AA
:10474000072213403A689A4201D001234AE07B686D
:104750001B68042213402BD07B68DB68002B1DD024
:104760007B68DA688023DB019A4217D07B68DA68BD
:10477000A023DB019A4211D07B68DA68C023DB01F9
:104780009A420BD07B68DA68E023DB019A4205D0BD
:104790001E4A164B11001800FEF734FA184B9B689E
:1047A0001B4A134019007B68DA68154B0A439A606C
:1047B00000F034F80100124B9B681B0A0F221340D3
:1047C000144AD35C1A001F2313400A00DA40124B2C
:1047D0001A600B257C190320FEF746FC03002370AA
:1047E0007B191B781800BD4604B0B0BD04B40008A6
:1047F000790300007A0300000020024091030000CA
:104800000010024088130000FFF0FFFFF5030000D6
:10481000FF8FFFFF30B700081400002080B58AB07A
:1048200000AF00237B6200233B62464B9B6838222B
:104830001340BB61434BDB68032213407B61BB69C0
:10484000002B05D0BB69182B25D17B69012B22D108
:104850003C4B1B680822134007D13A4A9423D35893
:104860001B0A0F2213407B6205E0364B1B681B09B5
:104870000F2213407B627B6A0B2B01D900237B62E2
:10488000314B7A6A9200D3587B62BB69002B1BD1F3
:104890007B6A3B6218E0BB69082B02D12B4B3B6261
:1048A00012E0BB69102B02D1294B3B620CE0BB69C3
:1048B000202B03D1FA23DB013B6205E0BB69282BE7
:1048C00002D180231B023B62BB69182B35D11D4BE3
:1048D000DB68032213403B611A4BDB681B0907228C
:1048E00013400133FB603B69022B03D03B69032B70
:1048F00003D005E0154BFB6105E0154BFB6102E0C1
:104900007B6AFB61C0460F4BDB681B0A7F221340AA
:10491000FA695343F9681800FBF708FC0300BB6011
:10492000084BDB685B0F0722134001337B6079681B
:10493000B868FBF7FBFB03003B623B6A1800BD460F
:104940000AB080BD0010024048B700080024F400FF
:1049500000127A0080B500AF024B1B681800BD46FC
:1049600080BDC0461400002080B500AFFFF7F2FF05
:104970000100074B9B681B0B07221340054AD35CC1
:104980001A001F231340D9400B001800BD4680BDFC
:104990000010024040B7000880B586B000AF7860D4
:1049A00000233B612F4B9A6D80235B05134004D09D
:1049B000FFF70AF803007B6117E02A4B9A6D294B39
:1049C000802149050A439A65264B9A6D80235B0531
:1049D0001340FB60FB68FEF7F7FF03007B61214B90
:1049E0009A6D204B20490A409A657A6980239B0082
:1049F0009A4211D17B68802B1CD97B68B02B02D9DD
:104A000002233B6116E07B68902B02D901233B61B6
:104A100010E000233B610DE07B687F2B02D902236D
:104A20003B6107E07B68702B02D101233B6101E011
:104A300000233B610D4B1B680722934319000B4B6E
:104A40003A690A431A60094B1B68072213403A6906
:104A50009A4201D0012300E000231800BD4606B0B1
:104A600080BDC04600100240FFFFFFEF0020024063
:104A700080B586B000AF78601323FB1800221A704F
:104A80001223FB1800221A707B681B68664A1340C9
:104A900004D07B681B68654A134004D0644B7A21BC
:104AA0001800FEF7AFF87B681A6880231B021340DA
:104AB00000D1DAE01123FB1800221A707B685B6BCF
:104AC000002B16D07B685A6B80235B009A4210D073
:104AD0007B685A6B80239B009A420AD07B685A6B92
:104AE000C0239B009A4204D0514B82211800FEF74C
:104AF00089F8504B9A6D80235B05134011D14D4BC3
:104B00009A6D4C4B802149050A439A65494B9A6D31
:104B100080235B051340BB60BB681123FB18012297
:104B20001A70454B1A68444B802149000A431A60A9
:104B3000FEF7F4FA0300FB600BE0FEF7EFFA020069
:104B4000FB68D31A022B04D91323FB1803221A7013
:104B500005E0394B1A6880235B001340EDD0132326
:104B6000FB181B78002B00D06EE0324A9023D258FD
:104B7000C0239B0013407B617B69002B1FD07B68A7
:104B80005B6B7A699A421AD02A4A9023D3582B4AEF
:104B900013407B61274A9023D35826498022520232
:104BA000134390228B50234A9023D3582149244AFF
:104BB000134090228B501F4990227B698B507B6958
:104BC0000122134017D0FEF7A9FA0300FB600CE0A6
:104BD000FEF7A4FA0200FB68D31A1A4A934204D9DA
:104BE0001323FB1803221A7005E0124A9023D358AE
:104BF00002221340ECD01323FB181B78002B0BD19F
:104C00000C4A9023D3580D4A1A407B685B6B0949C4
:104C1000134390228B501DE01223FB181322BA1865
:104C200012781A7016E0C046FBED03000412FCFF78
:104C30003CB400080010024000700040FFFCFFFF81
:104C4000FFFFFEFF881300001223FB181322BA187F
:104C500012781A701123FB181B78012B05D1C54B54
:104C60009A6DC44BC4490A409A657B681B6801224F
:104C7000134020D07B685B68002B10D07B685B689A
:104C8000012B0CD07B685B68022B08D07B685B68CB
:104C9000032B04D0B94BD7211800FDF7B3FFB54A59
:104CA0008823D358032293431A007B685B68B14979
:104CB000134388228B507B681B680222134020D04C
:104CC0007B689B68002B10D07B689B68042B0CD002
:104CD0007B689B68082B08D07B689B680C2B04D0F2
:104CE000A64BE1211800FDF78DFFA24A8823D35877
:104CF0000C2293431A007B689B689E4913438822C9
:104D00008B507B681B681022134025D07B681B6981
:104D1000002B16D07B681A698023DB009A4210D0E2
:104D20007B681A6980231B019A420AD07B681A6942
:104D3000C0231B019A4204D0904BEB211800FDF7D1
:104D400061FF8C4A8823D3588D4A1A407B681B69BF
:104D50008849134388228B507B681B6808221340C4
:104D600025D07B68DB68002B16D07B68DA6880234F
:104D70005B009A4210D07B68DA6880239B009A42DD
:104D80000AD07B68DA68C0239B009A4204D07B4B30
:104D9000F5211800FDF736FF764A8823D358794A63
:104DA0001A407B68DB687349134388228B507B6809
:104DB0001B682022134022D07B685B69002B13D034
:104DC0007B685A6980235B019A420DD07B685A69DF
:104DD00080239B019A4207D00A23FF331A00674BB6
:104DE00011001800FDF70EFF624A8823D358664A67
:104DF0001A407B685B695F49134388228B507B684C
:104E00001B684022134022D07B689B69002B13D083
:104E10007B689A6980235B029A420DD07B689A690D
:104E200080239B029A4207D01423FF331A00534B6E
:104E300011001800FDF7E6FE4E4A8823D358534A66
:104E40001A407B689B694B49134388228B507B68CF
:104E50001B688022134027D07B68DB69002B18D0A9
:104E60007B68DA6980231B039A4212D07B68DA6977
:104E70008023DB029A420CD07B68DA69C0231B03D3
:104E80009A4206D08E235A003C4B11001800FDF7C1
:104E9000B9FE384A8823D3583D4A1A407B68DB69FB
:104EA0003449134388228B507B681A6880235B0047
:104EB000134028D07B681B6A002B19D07B681A6AC4
:104EC00080239B039A4213D07B681A6A80235B037A
:104ED0009A420DD07B681A6AC0239B039A4207D07E
:104EE0002423FF331A00254B11001800FDF78AFE1A
:104EF000204A8823D358274A1A407B681B6A1D49D9
:104F0000134388228B507B681A688023DB0113408F
:104F100044D07B681B6B002B12D07B681A6B8023FC
:104F20005B059A420CD07B681A6B80239B059A42E2
:104F300006D099235A00114B11001800FDF762FEAC
:104F40007B681A6B80235B059A4206D1094BDA68AD
:104F5000084B802149020A43DA60064A8823D35865
:104F60000D4A1A407B681B6B0249134388228B5001
:104F700014E0C04600100240FFFFFFEF3CB4000801
:104F8000FFF3FFFFFFFCFFFFFFCFFFFFFFFFFCFF73
:104F9000FFFFF3FFFFFFCFFFFFFFFFCF7B681A6824
:104FA00080239B01134035D07B68DB6A002B19D02E
:104FB0007B68DA6A8023DB049A4213D07B68DA6A62
:104FC00080231B059A420DD07B68DA6AC0231B053B
:104FD0009A4207D04E23FF331A00414B11001800AC
:104FE000FDF710FE7B68DA6A80231B059A4206D122
:104FF0003C4BDA683B4B802149040A43DA60394A6A
:105000008823D358384A1A407B68DB6A35491343F2
:1050100088228B507B681A688023DB00134029D0DC
:105020007B685B6A002B0DD07B685A6A80235B0427
:105030009A4207D05C23FF331A00294B1100180055
:10504000FDF7E0FD7B685A6A80235B049A4206D133
:10505000244BDA68234B802149040A43DA60214A51
:105060008823D358214A1A407B685B6A1D49134341
:1050700088228B507B681A6880231B01134028D03C
:105080007B689B6A002B0CD07B689A6A80239B0408
:105090009A4206D0B4235A00114B11001800FDF7B4
:1050A000B1FD7B689A6A80239B049A4206D10D4B1E
:1050B000DA680C4B802149040A43DA60094A8823E4
:1050C000D3580A4A1A407B689B6A064913438822D0
:1050D0008B501223FB181B781800BD4606B080BD0C
:1050E0003CB4000800100240FFFFFFF3FFFFFFFE8B
:1050F00090B589B000AF78600023FB617B68CD4A32
:10510000134003D07B68CC4A134007D0E623FF331B
:105110001A00CA4B11001800FDF774FD7A6880234D
:105120001B029A4254D1C64A9023D258C0239B00F6
:1051300013407B617A69C0239B009A4239D07A6917
:10514000C0239B009A4201D900F0F9FB7A698023C1
:105150005B009A4206D07A6980239B009A420FD066
:1051600000F0EDFBB64A9023D35802221340022BE5
:1051700001D000F0E6FB80231B02FB6100F0E1FBA5
:10518000AF4A9423D35802221340022B01D000F0DF
:10519000DAFBAB4A9423D35804221340042B03D1E7
:1051A000FA23FB6100F0CFFBFA23DB01FB6100F087
:1051B000CAFBA34B1A6880239B021A4080239B02E0
:1051C0009A4201D000F0C1FB9E4BFB6100F0BDFB99
:1051D0007A6880239B029A4200D1F7E07A688023A4
:1051E0009B029A4201D900F0B2FB7A6880235B02ED
:1051F0009A4200D1EAE07A6880235B029A4201D9A0
:1052000000F0A5FB7A688023DB019A4200D187E198
:105210007A688023DB019A4201D900F098FB7A6812
:1052200080239B019A4201D100F02FFB7A688023F2
:105230009B019A4201D900F08AFB7A6880231B0106
:105240009A4200D1F6E27A6880231B019A4201D982
:1052500000F07DFB7A688023DB009A4200D1BEE239
:105260007A688023DB009A4201D900F070FB7A68EB
:1052700080235B009A4200D154E27A6880235B006D
:105280009A4201D900F063FB7B68802B00D1E8E1F2
:105290007B68802B01D900F05AFB7B68202B0FD84C
:1052A0007B68002B01D100F052FB7B68202B01D9D9
:1052B00000F04DFB7B689A00634BD3181B689F4638
:1052C0007B68402B00D198E100F041FB5C4A8823C9
:1052D000D358032213407B617B69032B25D07B6964
:1052E000032B2DD87B69022B13D07B69022B27D887
:1052F0007B69002B03D07B69012B05D020E0FFF7F1
:1053000033FB0300FB6120E0FFF788FA0300FB6139
:105310001BE04B4B1A688023DB001A408023DB0024
:105320009A420FD1494BFB610CE0454A9023D35878
:1053300002221340022B07D180231B02FB6103E0F2
:10534000C04605E3C04603E3C04601E33C4A882368
:10535000D3580C2213407B617B690C2B25D07B69D1
:105360000C2B2DD87B69082B13D07B69082B27D8F1
:105370007B69002B03D07B69042B05D020E0FFF76D
:10538000F3FA0300FB6120E0FFF748FA0300FB613A
:105390001BE02B4B1A688023DB001A408023DB00C4
:1053A0009A420FD1294BFB610CE0254A9023D35838
:1053B00002221340022B07D180231B02FB6103E072
:1053C000C046C5E2C046C3E2C046C1E2FFF7CCFA20
:1053D0000300FB61BCE21A4A8823D258C0231B0198
:1053E00013407B617A69C0231B019A423CD07A69E1
:1053F000C0231B019A4242D87A6980231B019A423A
:1054000026D07A6980231B019A4238D87B69002B09
:1054100005D07A698023DB009A4205D02FE0FFF7A0
:10542000A3FA0300FB612FE0FFF7F8F90300FB612B
:105430002AE0C046FBED03000412FCFF3CB4000868
:105440000010024090D0030078B700080024F40058
:10545000B24B1A688023DB001A408023DB009A429B
:105460000FD1AF4BFB610CE0AC4A9023D358022222
:105470001340022B07D180231B02FB6103E0C046CF
:1054800066E2C04664E2C04662E2A44A8823D2587B
:10549000C0239B0013407B617A69C0239B009A4222
:1054A0002DD07A69C0239B009A4233D87A69802331
:1054B0009B009A4217D07A6980239B009A4229D890
:1054C0007B69002B05D07A6980235B009A4205D066
:1054D00020E0FFF749FA0300FB6120E0FFF79EF9A7
:1054E0000300FB611BE08D4B1A688023DB001A4030
:1054F0008023DB009A420FD1894BFB610CE0874A85
:105500009023D35802221340022B07D180231B0281
:10551000FB6103E0C0461BE2C04619E2C04617E249
:105520007E4A8823D258C0239B0513407B617A6949
:1055300080239B059A4212D07A6980239B059A4268
:1055400025D87B69002B05D07A6980235B059A42B8
:1055500014D01CE0FFF762F90300FB6118E06F4B09
:105560001A688023DB001A408023DB009A4202D1B4
:105570006B4BFB610CE00023FB6109E008243B1945
:10558000180000F0F3F93B191B68FB6100E0C0460E
:10559000DEE1624A8823D258C0239B0113407B611D
:1055A0007A6980239B019A4217D07A6980239B01F4
:1055B0009A421ED87B69002B05D07A6980235B0153
:1055C0009A4205D015E0FFF7CFF90300FB6113E025
:1055D000FFF724F90300FB610EE0504B1A688023AB
:1055E000DB001A408023DB009A4204D14C4BFB6164
:1055F00001E0C046ACE1C046AAE1484A8823D2583F
:10560000C0239B0213407B617A6980239B029A42EC
:1056100017D07A6980239B029A421ED87B69002B9F
:1056200005D07A6980235B029A4205D015E0FFF726
:105630009BF90300FB6113E0FFF7F0F80300FB6147
:105640000EE0364B1A688023DB001A408023DB0013
:105650009A4204D1324BFB6101E0C04678E1C0467A
:1056600076E12E4A8823D258C0231B0313407B6166
:105670007A69C0231B039A423DD07A69C0231B0379
:105680009A4243D87A6980231B039A4227D07A69C9
:1056900080231B039A4239D87B69002B05D07A6995
:1056A0008023DB029A4205D030E0FFF75DF903006A
:1056B000FB6132E0194A9423D35802221340022B93
:1056C00026D1164A9423D35804221340042B02D126
:1056D000FA23FB611CE0FA23DB01FB6118E00F4BAE
:1056E0001A688023DB001A408023DB009A4211D124
:1056F0000B4BFB610EE0094A9023D3580222134062
:10570000022B09D180231B02FB6105E0C0461FE18B
:10571000C0461DE1C0461BE1C04619E10010024031
:105720000024F4008D4A8823D258C0239B031340E1
:105730007B617A69C0239B039A423DD07A69C0237A
:105740009B039A4243D87A6980239B039A4227D0CD
:105750007A6980239B039A4239D87B69002B05D054
:105760007A6980235B039A4205D030E0FFF7FCF8AA
:105770000300FB6132E0794A9423D358022213409C
:10578000022B26D1754A9423D35804221340042BAC
:1057900002D1FA23FB611CE0FA23DB01FB6118E074
:1057A0006E4B1A688023DB001A408023DB009A428C
:1057B00011D16B4BFB610EE0684A9023D358022253
:1057C0001340022B09D180231B02FB6105E0C04678
:1057D000BEE0C046BCE0C046BAE0C046B8E05F4AA2
:1057E0008823D25880235B0413407B617B69002BA4
:1057F00005D07A6980235B049A4211D019E0574B97
:105800009A68E023DB01134004D1FFF7ADF80300F1
:10581000FB610EE0FFF7A8F803005B00FB6108E006
:1058200008243B19180000F0A1F83B195B68FB61E4
:10583000C0468DE0494A8823D25880239B041340F8
:105840007B617B69002B05D07A6980239B049A4297
:1058500011D019E0414B9A68E023DB01134004D1D9
:10586000FFF782F80300FB610EE0FFF77DF803000D
:105870005B00FB6108E008243B19180000F076F893
:105880003B195B68FB61C04662E0344A8823D2580A
:10589000C0231B0513407B617A69C0231B059A4214
:1058A00017D07A69C0231B059A4244D87A698023AD
:1058B0001B059A4233D07A6980231B059A423AD855
:1058C0007B69002B34D07A698023DB049A4203D0B1
:1058D00031E0244BFB6131E0204B1B680222134076
:1058E000022B2AD11D4B1B680822134005D01B4BED
:1058F0001B681B090F22134005E0184A9423D35854
:105900001B0A0F221340BB61BB690B2B01D90B2370
:10591000BB61154BBA699200D358FB610DE00824B6
:105920003B19180000F022F83B195B68FB6105E0A9
:105930000023FB6102E0C0460AE0C04608E0C04622
:1059400006E0C04604E0C04602E0C04600E0C046B3
:10595000FB691800BD4609B090BDC046001002406A
:105960000024F400006CDC0248B7000880B588B061
:1059700000AF7860584BDB681B0A7F2213407B61C5
:10598000554BDB68032213403B61534BDB681B091B
:10599000072213400133FB604F4B1B680822134062
:1059A00005D04D4B1B681B090F22134005E04A4AE6
:1059B0009423D3581B0A0F221340BB61BB690B2BE6
:1059C00001D90B23BB613B69032B20D03B69032B1F
:1059D00027D83B69012B0CD03B69022B21D1F968F8
:1059E0003E48FAF7A3FB03001A007B695343FB61AF
:1059F00025E03B4BBA699200D358F9681800FAF7D2
:105A000095FB03001A007B695343FB6117E0F968BB
:105A10003448FAF78BFB03001A007B695343FB61A0
:105A20000DE02F4BBA699200D358F9681800FAF7C5
:105A30007DFB03001A007B695343FB61C046264B84
:105A4000DA6880235B0213400ED0234BDB685B0CCB
:105A50001F22134001331900F869FAF767FB0300AE
:105A60001A007B681A6002E07B6800221A601A4BF9
:105A7000DA6880235B0413400ED0174BDB685B0EA3
:105A80000722134001331900F869FAF74FFB0300AE
:105A90001A007B685A6002E07B6800225A600E4B55
:105AA000DA6880235B0513400ED00B4BDB685B0F7D
:105AB0000722134001331900F869FAF737FB030096
:105AC0001A007B689A6002E07B6800229A60C046F8
:105AD000BD4608B080BDC046001002400024F4005E
