:020000040800F2
:100000000020002031340008B9310008C131000857
:1000100000000000000000000000000000000000E0
:10002000000000000000000000000000C9310008CE
:100030000000000000000000D3310008DD3100089E
:1000400081340008813400088134000881340008BC
:100050008134000881340008EB310008FB310008CE
:100060000000000081340008813400088134000859
:10007000813400088134000881340008813400088C
:10008000813400088134000881340008813400087C
:100090008134000881340008000000008134000829
:1000A000813400088134000881340008813400085C
:1000B000813400088134000881340008813400084C
:1000C00010B5064C2378002B07D1054B002B02D02E
:1000D000044800E000BF0123237010BDAC010020E4
:1000E0000000000030D20008044B10B5002B03D0F4
:1000F0000349044800E000BF10BDC04600000000F6
:10010000B001002030D200080023C25C0133002A75
:10011000FBD1581E7047000003B4714649084000E7
:100120004900095E49008E4403BC70470022430821
:100130008B4274D303098B425FD3030A8B4244D3AF
:10014000030B8B4228D3030C8B420DD3FF220902F1
:1001500012BA030C8B4202D31212090265D0030BB0
:100160008B4219D300E0090AC30B8B4201D3CB03A6
:10017000C01A5241830B8B4201D38B03C01A5241E8
:10018000430B8B4201D34B03C01A5241030B8B42EA
:1001900001D30B03C01A5241C30A8B4201D3CB02D5
:1001A000C01A5241830A8B4201D38B02C01A5241BA
:1001B000430A8B4201D34B02C01A5241030A8B42BD
:1001C00001D30B02C01A5241CDD2C3098B4201D3D5
:1001D000CB01C01A524183098B4201D38B01C01A53
:1001E000524143098B4201D34B01C01A52410309CA
:1001F0008B4201D30B01C01A5241C3088B4201D379
:10020000CB00C01A524183088B4201D38B00C01A25
:10021000524143088B4201D34B00C01A5241411A4C
:1002200000D20146524110467047FFE701B5002059
:1002300000F0F0F802BDC0460029F7D076E770471D
:1002400003460B437FD4002243088B4274D3030937
:100250008B425FD3030A8B4244D3030B8B4228D3D8
:10026000030C8B420DD3FF22090212BA030C8B42FE
:1002700002D31212090265D0030B8B4219D300E09E
:10028000090AC30B8B4201D3CB03C01A5241830B23
:100290008B4201D38B03C01A5241430B8B4201D3D3
:1002A0004B03C01A5241030B8B4201D30B03C01AFC
:1002B0005241C30A8B4201D3CB02C01A5241830A76
:1002C0008B4201D38B02C01A5241430A8B4201D3A5
:1002D0004B02C01A5241030A8B4201D30B02C01ACF
:1002E0005241CDD2C3098B4201D3CB01C01A524136
:1002F00083098B4201D38B01C01A524143098B42BF
:1003000001D34B01C01A524103098B4201D30B01A7
:10031000C01A5241C3088B4201D3CB00C01A5241CC
:1003200083088B4201D38B00C01A524143088B4291
:1003300001D34B00C01A5241411A00D2014652412A
:10034000104670475DE0CA0F00D04942031000D349
:100350004042534000229C4603098B422DD3030A9E
:100360008B4212D3FC22890112BA030A8B420CD3AE
:10037000890192118B4208D3890192118B4204D3D7
:1003800089013AD0921100E08909C3098B4201D357
:10039000CB01C01A524183098B4201D38B01C01A91
:1003A000524143098B4201D34B01C01A5241030908
:1003B0008B4201D30B01C01A5241C3088B4201D3B7
:1003C000CB00C01A524183088B4201D38B00C01A64
:1003D0005241D9D243088B4201D34B00C01A52413B
:1003E000411A00D20146634652415B10104601D3C8
:1003F0004042002B00D54942704763465B1000D352
:10040000404201B5002000F005F802BD0029F8D0F7
:1004100016E770477047C0468446100062468C4617
:100420001900634600E0C0461FB501F091F80028AE
:1004300001D40021C8421FBD10B500F0D1FF4042D9
:10044000013010BD10B501F083F8002801DB002059
:1004500010BD012010BDC04610B501F079F800288C
:1004600001DD002010BD012010BDC04610B500F018
:10047000FBFF002801DC002010BD012010BDC0469C
:1004800010B500F0F1FF002801DA002010BD0120B6
:1004900010BDC0461C2101231B04984201D3000C4F
:1004A00010391B0A984201D3000A08391B099842E7
:1004B00001D30009043902A2105C40187047C046FD
:1004C000040302020101010100000000000000001D
:1004D000002B11D1002A0FD1002900D1002802D011
:1004E0000021C943080007B4024802A14018029045
:1004F00003BDC04621FFFFFF03B4684601B5029863
:1005000000F024F8019B9E4602B00CBC7047C04628
:1005100070B500220C4B04000D00FFF7B1FF00285E
:1005200004D12000290001F0E9FE70BD064B002235
:100530002000290001F046FB01F0E0FE80231B06AD
:100540009C466044F1E7C0460000E041F0B55746E4
:100550004E464546DE46E0B504000D0092469946FB
:1005600083B08B4230D82DD04946504601F054FF1D
:1005700029000600200001F04FFF331A9846203B67
:1005800034D49B4653465A46934042461F00534636
:1005900093401E00AF423BD8AF4200D179E05B46AA
:1005A000A41BBD41002B00DA76E00022002300925C
:1005B000019301235A4693400193012342469340FD
:1005C000009329E08242CFD90022002300920193B8
:1005D0000C9B002B01D01C605D600098019903B05A
:1005E000F0BCBB46B246A946A046F0BD42469B467B
:1005F00020239B1A5246DA40414613004A468A405D
:10060000170042461F43534693401E00AF42C3D9D2
:1006100000220023009201934346002BD8D0FB0711
:1006200072081A4346467B080EE0AB4201D1A24253
:100630000CD8A41A9D41012024196D410021013ECE
:1006400024184D41002E06D0AB42EED9013E2419AC
:100650006D41002EF8D1009801995B46001969415F
:10066000002B24DB2B005A464446D3402A00E240AC
:100670001C005B461500002B2ADB26009E40330041
:1006800026004746BE403200801A994100900191F1
:100690009EE7A342BCD882E74246202300219B1A52
:1006A0000022009101920122DA40019285E7424640
:1006B00020239B1A2A0046469A402300F3404446D2
:1006C00013432A00E2401C005B461500002BD4DADD
:1006D00042462F002023260097409B1ADE403B0015
:1006E0003343CDE7F0B557464E464546DE46E0B5C6
:1006F00083B0009001910C034F00CE0F610A009C63
:100700001D03640F0C43009900920193C800590027
:100710004B0D9946009A019B6D0AD90F530F2B433D
:100720009A46009B7F0DDA0094464A46B046BA1AB4
:100730008E4200D1B0E0002A00DC78E04946002972
:1007400000D1E9E0C9498F4200D195E10125382A5D
:1007500016DC8021534609040B439A461F2A00DD0C
:10076000E7E1202155468B1A61469D40D1400D435B
:10077000614699404B1E99415346D3400D43E41ABC
:10078000451BA84280414042241A230200D40FE1B5
:100790006402640A002C00D139E12000FFF77AFEE0
:1007A0000300083B20212800CA1AD0409C400200C8
:1007B0009D4022439F4200DD73E1D81B0130091A9E
:1007C0002C008D40C4406B1E9D411300C2408B40E5
:1007D0002543002714001D436B0709D00F232B402E
:1007E000042B05D02B1DAB42AD416D4264191D0099
:1007F000230200D42DE19D4A0137974200D1D3E076
:1008000046469B49ED0821404A072A437C054D0294
:100810002D0B640D24052C43F607344310002100F2
:1008200003B0F0BCBB46B246A946A046F0BD002AC4
:1008300000D184E04A46D21B002F00D06DE1250094
:10084000054300D127E1561E012A00D13BE2874D26
:10085000AA4200D16AE20125382E12DC32001F2A9A
:1008600000DDF8E120262500B61A07005346B04007
:10087000D440B540D740461EB0411B1B9A463D436D
:1008800005436246551BAC459241534652420E0009
:100890004F4688469C1A78E7002A00DC8EE04946DD
:1008A000002975D161465346194300D1F6E0511E27
:1008B000012A00D191E16D4DAA4200D1DCE0012571
:1008C000382914DC0A001F2A00DDA2E1202153464A
:1008D000891A8B401D006346D3401D4363468B40FD
:1008E00019004B1E99415346D3400D43E4182D186F
:1008F0008542804140422418230259D55B4B013781
:100900009F4251D001215A4B6A081C4029400A439A
:10091000E507154364085FE761465346194300D174
:10092000BCE0511E012A00D164E1504DAA4200D121
:100930006AE10125382900DD22E70A000EE74D4A69
:100940007D1C154200D0D0E0250062465346054389
:100950001A43002F00D037E1002D00D1A8E1002A72
:1009600000D16AE16346C51A5346E21AA8429B4188
:100970005B42D31A1A0200D403E263461D1AAC4547
:100980009241534652421C1B0E008846A41A23E78C
:1009900036498F4270D00125382AA8DC8021534681
:1009A00009040B439A468EE73C000025002231E7FC
:1009B00007232B40002B00D010E793E0002A74D0CF
:1009C0004A46D21B002F00D1C7E02849894500D1F3
:1009D00085E10125382A12DC802109040C431F2AF5
:1009E00000DDABE120212500891A070088408D40F9
:1009F000D740411E8841D4403D430543A24465444D
:100A0000654592415242524414004F4674E7280013
:100A1000FFF740FD030018331F2B00DCC2E62A005D
:100A2000083882409F4200DDA9E0DB1B581C1F28CC
:100A300000DCACE115001F3BDD40202805D0402341
:100A40001B1A9A40531E9A411543072300272B4037
:100A5000B0E7ED08054B62072A43E4089F420FD038
:100A60002403250B7C05640DD4E6C046FF07000077
:100A7000FFFF7FFFFE070000C00862070243E40893
:100A80001300234300D186E180252D0325432D0348
:100A9000C34C2D0BBEE6604654460E001700C50839
:100AA000D8E7C04CFF1A144096E6BF4A791C1142A1
:100AB0006BD122000243002F00D0DBE0002A00D1DE
:100AC0002DE1624653461A4300D1B6E06346C5188D
:100AD00085428041544440422418230202D50F002D
:100AE000B04B1C403A002800D8E76246851AA8425D
:100AF0009241534652429146E31A1A004B46D21A8B
:100B0000130091461A0254D44A464C462A4300D058
:100B100040E60026002400257CE6A14DA94500D131
:100B200090E00125382A00DDABE680252D042C431A
:100B300095E6110055462039CD40A946202A06D019
:100B4000402153468A1A934062461A4394466546AA
:100B50006B1E9D414B461D4312E62100014300D10F
:100B6000C4E0511E012A00D1FBE08D4DAA4200D104
:100B7000B5E00125382900DD41E70A002FE7894C5F
:100B8000FF1A14406207E4086AE7854A914200D1DF
:100B9000E3E06346C218824280412300404253444E
:100BA0001B18DD075C080723520815430F002B4074
:100BB00000E763461D1AAC459241534652421C1B46
:100BC0000E008846A41AE5E5002D00D091E0002A29
:100BD00038D180240026240356E76346C518854291
:100BE00080415444404224180127230200D4DFE608
:100BF000022787E66346C51AA84280415346404211
:100C0000E41A0127241AC0E56207C0080243E40879
:100C100036E7110053462039CB409946202A06D0AA
:100C2000402153468A1A934062461A4394466546C9
:100C30006B1E9D414B461D4359E66207C0080243A7
:100C4000E4080DE753465A076346D80853460E009A
:100C50000243DC0814E715002600203DEE40202A60
:100C600003D04025AA1A94402043421E904105001B
:100C7000354306E6002A7CD062465346C0081A4334
:100C800000D1FAE6620710438022E40812031442FE
:100C900008D0D908114205D16346D80853460C0044
:100CA0005B071843420FC000C00852070243E7E643
:100CB000002A00D12DE76346D80853465A070E0094
:100CC0000243DC08CCE663461D1AAC45924153460C
:100CD00052421C1B0E008846A41A013755E5634694
:100CE000D90853465A070A43DC08C9E66046544609
:100CF000D4E6C008002A00D1BFE662071043802274
:100D0000E40812031442CDD0DD081542CAD163466F
:100D1000D80853465B070E002C001843C2E7634611
:100D2000D90853465A070A43DC0899E66346D808AF
:100D300053465A070E000243DC08A1E611002700C3
:100D40002039CF40202A03D040218A1A94402043E2
:100D5000421E904105003D4351E60C000025002253
:100D600058E5604460459241544452420500A4183D
:100D70003AE753465A076346D90853460A43DC0804
:100D80007EE61A001C002A4300D0ABE6C1E6202113
:100D90000025091A19E500220025014C3AE5C04654
:100DA000FF070000FFFF7FFFFE070000F0B5DE46F3
:100DB000454657464E46E0B587B0009201930B0377
:100DC0001B0B9B46CA0F4B00040080465B0D029232
:100DD00000D16AE1D44A934200D18CE15946420FD6
:100DE000C9000A43802109041143C2009046CF4A3A
:100DF000894692469A44002300240393009E019F53
:100E00003B031B0B9B467B0030005B0DFD0F002B53
:100E100000D128E1C44A934200D177E15946720FCC
:100E2000C9000A438021090411438B46BF49F200DF
:100E30008C4651466344CB1A9A460023029E6E406C
:100E40000F2C27D8BA49A40009598F46CB464246F1
:100E5000029E039B022B16D0032B00D1A6E2012B8E
:100E600000D0DFE000220023002490461B0523432E
:100E7000F60733434046190007B0F0BCBB46B24604
:100E8000A946A046F0BD002200249046A64BEDE7FF
:100E90002E00DFE7CB4500D2D4E100D1CFE1012322
:100EA0005B429C46444648460027E2445B46150E9A
:100EB0001B021D43190C2B04120200951D0C9146B8
:100EC00002910395FFF7B8F902006A430B04210C65
:100ED000804619438A4209D9009D0123AC465B42F2
:100EE00061449C46E0448D4200D8FBE1881A029997
:100EF000FFF7A2F9039A240442430904240C0300D7
:100F00000C43A24206D90099013B8C466444A1429D
:100F100000D8E1E1A01A424612041A4393464B4618
:100F200059461B0C1D0004930B0449460904090C87
:100F30000C001B0C5C43120C6B43884651436A4304
:100F4000250CAC465B186344994203D980214902C1
:100F50008C466244190C24041B04240C8A181C19A6
:100F6000904202D316D1A74214D25B46009D013BAA
:100F70004F4405934F459B41AC465B426344C018C8
:100F8000854200D3A1E1824200D9F6E100D1F1E12E
:100F9000059B9B463C1BA742BF41009D801A7F4298
:100FA000C01B854200D1D0E10299FFF745F9039AB1
:100FB0000B044243210C070019438A4200D978E10F
:100FC000881A0299FFF738F9039A24044243090466
:100FD000240C03000C43A24200D95DE14146A41A4F
:100FE0003A041A43049D13041B0C594347466B43B0
:100FF0009C46100C47430B0CBC44634468439F421F
:1010000003D980256D02AC4660441F0C09041B0403
:10101000090C3F185B18BC4200D202E100D1FDE090
:1010200001231A43434B5344002B00DCAEE051072D
:1010300000D098E15946C90106D559463E4B1940A2
:1010400080238B46DB0053443C498B4200DD1AE78A
:101050005946D208490711435A465B05540288464F
:10106000240B5B0D02E75A46009B1A4300D17EE039
:101070005B46002B00D100E15846FFF70BFA020057
:1010800003000B3A1D27009EBA1A19005846D64095
:1010900008398840320002439346009A8A40284922
:1010A00053448A469A440023C8E65B460343994664
:1010B00056D05B46002B00D1CDE05846FFF7EAF949
:1010C0000B235B429C460200844466461D239B1B07
:1010D000260011005846DE4008398840330003439B
:1010E000994623008B409846164B00249B1A9A463B
:1010F0000023039382E65A46024391462AD10022F6
:101100009A46022390460824039377E65A46009BAA
:101110001A430D4B9C46E244002A17D102231C437C
:1011200000239B46023389E6FF07000001FCFFFF16
:1011300050D70008FF030000FFFFFFFEFE0700007E
:10114000F30300000DFCFFFF01F8FFFF0323320053
:101150001C4373E69A460323D9460C2403934DE6B9
:10116000002398469A4601330424039346E601235C
:101170001C4300239B46013360E6002380249846ED
:101180000026924B240371E6012252420121C91A22
:10119000382900DD66E61F2900DCABE01F20404255
:1011A000C31A5846D8400300202904D0584688491D
:1011B000514488400243511E8A411A4307231900B3
:1011C0000024114013420CD00F231340042B00D1F4
:1011D000F9E0111D91429B410A005B4259075B02F5
:1011E0001C0BD2080A43904600233FE680244B465E
:1011F0002403234209D05B46234206D11C43240327
:101200002E009046714B240B30E680244B4624037D
:101210001C432403029E6D4B240B27E6002B00D1B8
:1012200000E70098511E84466444844200D284E062
:10123000BC4200D2AEE000D1C1E00A00F0E6424577
:1012400000D92CE64B46DC07580843465B081C4394
:101250004346DF072AE6FFF71DF915239C46844421
:101260000200634620321C2B00DC2EE723000838E6
:10127000834099460023984636E7FFF70BF90200B2
:101280000300153220331C2A00DCFBE600990838E5
:10129000814000228B4602E70099013B8C46644462
:1012A000A14200D99AE6A24200D897E6831E644480
:1012B00094E6AC466144013F8D4200D980E68A4203
:1012C00000D87DE6871E61447AE6854200D05FE65D
:1012D000B94500D95CE656E6A24200D81AE6831E5C
:1012E000644417E68A4200D800E6AC46831E98465E
:1012F0006144FBE537481400504482405B461700C8
:101300008340CC407A1E974123433B431A005B46FF
:10131000CB40510709D00F211140042905D0111DE0
:101320009142924152429B180A00190200D455E79B
:10133000002201230024904698E50A00BC4200D018
:101340006EE64B4500D06BE66CE6234B234A5344D4
:10135000924500DA18E7012149420A1D8A42894173
:1013600049428B4466E60F211140042900D161E611
:101370001100F2E7BC4200D80AE602235B429C4619
:1013800000994F444F459B41E3448C465B42634484
:10139000C018FFE54946009D480048458941AC46D4
:1013A000494261448146023A6418C7E780245B469B
:1013B00024031C4324039046044B240B56E5994513
:1013C000E8D30A00BDE7002308E7C046FF07000096
:1013D0003E0400001E040000FF03000002FCFFFFAB
:1013E000F0B55746DE464E464546E0B50D000400D2
:1013F000E80F83460903D80F090B824619488C462B
:101400001F0369005E00490D3F0B760D814218D025
:1014100086420FD00120B1420DD1BC450BD1944280
:1014200009D1D3451CD0002905D160462043431E75
:10143000984100E00120F0BCBB46B246A946A04658
:10144000F0BD01208E42F6D1614639430F001743AB
:101450002743F0D15B465246981A431E9841EAE76B
:101460000020E8E7FF070000F0B557464E46454626
:10147000DE46E0B50D000F03390B83B00400804653
:1014800001915800E90F314F400D8C466E00190351
:1014900082469146760D090BD80FBE421FD0BA4541
:1014A0000FD0002E2FD15546019E3443002D27D159
:1014B0000A433AD0002C45D100281AD101204042DD
:1014C00017E011433BD1002E02D1019F2743F3D0F7
:1014D000844509D16346002BF0D0604609E0019FA6
:1014E00027432CD1B24524D063460220013B18404B
:1014F000013803B0F0BCBB46B246A946A046F0BDD9
:10150000002CD9D0E4E75446002CEDD08445EBD133
:101510005645E9DCDEDB019B8B42E5D8DAD1C845D4
:10152000E2D80020C845E4D2D4E70020002CE0D067
:10153000DAE7114303D18445D6D10020D9E7022050
:101540004042D6E78445E6D0CEE7C046FF0700001C
:10155000F0B557464E464546DE46E0B50D000F0352
:1015600004008046E80F390B844683B05800304FA2
:10157000400D01911E03690082469146490D360BCC
:10158000D80FB94220D0BA450FD000292BD10199EC
:101590000C435146002937D1324338D0002C44D176
:1015A000002819D10120404216E0164313D100292A
:1015B00002D1019F2743F3D0844520D06346022007
:1015C000013B1840013807E0019F274303D18A45BA
:1015D000F4D116431FD0022003B0F0BCBB46B24684
:1015E000A946A046F0BD5446002CE7D08445E5D17D
:1015F0005145E3DC03DB019BB342DFD80FD06346E8
:10160000002BCFD06046E7E7002CC9D0D4E70020FC
:10161000002CE1D0D2E78445D0D10020DCE7C845DA
:10162000CCD80020C845D7D2E9E78445E3D0C5E748
:10163000FF070000F0B55746DE464E464546E0B58A
:101640001F000B031B0B16009A46CA0F4B00040029
:10165000934687B05B0D00D1D5E0BB4A934200D1E1
:10166000F8E05146420FC9000A43802109041143A2
:10167000C2009146B54A8A469D18002398460293B7
:101680003C037B00FA0F3000240B5B0D009200D16D
:1016900096E0AD4A934231D0720FE4002243802499
:1016A00024041443A94AF000944663445B195A1C6D
:1016B0000192424600260A2A42DC5A4600994A40D4
:1016C00093464246022A32DC013A012A00D949E116
:1016D000022E00D1CAE0012E3DD1002300240022B9
:1016E00010005A461B052343D2071343190007B0C5
:1016F000F0BCBB46B246A946A046F0BD924B26437D
:10170000EB18002E00D1BBE00322414611435A469C
:10171000884600994A40802109018C46290061448D
:10172000019141460A2900DD33E2934603264246F1
:1017300001279740A6213A00C9000A400F4231D044
:10174000029E022E00D135E2032E00D1D2E1544692
:101750004846012EC1D0019A7D4B94466344002B2C
:1017600000DCC0E0420709D00F220240042A05D065
:10177000021D82428041404224181000E20106D539
:10178000744B019A1C4080239446DB006344724AE8
:1017900093426BDC6207C00864025B050243240BC2
:1017A0005B0D9DE7902189000F4263D188223A4268
:1017B00000D1D7E0009BA2469B4681460296BFE738
:1017C0002300334300D17FE0002C00D1ADE12000A5
:1017D000FEF760FE020003000B3A1D201900821A7A
:1017E00030000839D0408C400443300088405B4AC8
:1017F000EB1A944663445A1C0192424600260A2A78
:1018000000DC5AE79CE753460343994654D05346BD
:10181000002B00D177E15046FEF73CFE0B235B42E4
:101820009C460200844411005046083988401D231C
:10183000804660461B1A2000D84003004046034300
:101840009A4623008B4099460023444D9846AD1A92
:10185000029315E752460243914626D100221D000D
:101860000223924608329046029309E700240022A0
:10187000354B35E7002380249B462403324B2FE76A
:101880000222414611438022120194462A006244FA
:10189000884601920A2900DD52E75A460020009945
:1018A00004004A40934602260BE70C221D00032346
:1018B000814690460293E3E600239A460433984615
:1018C000033B00250293DBE6424601331A432B001B
:1018D00090465A1C019242460024002001260A2A02
:1018E00000DCEAE62CE70122D21A382A00DDF4E611
:1018F0001F2A00DC2AE11F214942CB1A2100D940CE
:101900000B00202A05D0164A019D94466544AC4040
:101910002043421E90411843072319000024014030
:1019200003420CD00F230340042B00D140E1031DE0
:101930008342A4411800644261076402240BC20878
:1019400000230A43CCE6C046FF07000001FCFFFF6E
:10195000FF030000FFFFFFFEFE0700000DFCFFFF7E
:101960003E04000049464A460904090C0D00160CC5
:10197000020C0004000C4543AC4605007543A84624
:1019800015000F007543009202952A00009D6F43D9
:1019900065462D0CA94647444F44B84505D9150066
:1019A000802252029046454402953D0C03956546BF
:1019B0002D043F042D0CAC463D0065440495250CD8
:1019C0002404240CAC4625007543A84665460F0048
:1019D0006943414489466743390C49446E4388450D
:1019E00003D980225202904646440D0CA846350089
:1019F00045440595039D3F04A8463F0C0904C919B9
:101A000088444546039555462E04360C2F0C350068
:101A10004543784381463800A8462D0CAA46009AD3
:101A2000504372434A445244914503D980256D0284
:101A3000A9464844150CA94645462D042D0CA84638
:101A400065467D43120448449044A94632006546E9
:101A500062436E437C43170C3619BF19BC4203D94D
:101A600080246402A446E144029C039EA446059D92
:101A700066448E428941AC4612043C04120CA21802
:101A80006244494254184644A4464645A44182460D
:101A90006442A046AA4292418C458941E244D04426
:101AA000494252420A43A045A441824589416442C9
:101AB00049420C4341463F0CD2191219CC0D0499EE
:101AC00070020843411E884141464A44F60D5202C5
:101AD0003043490214430843D20135D5012243085B
:101AE00002401343E0071843640834E6009BA24613
:101AF0009B4681468024534624031C4324034A46C4
:101B00002E4B240BECE5FEF7C5FC15239C468444C4
:101B10000200634620321C2B00DC84E60023994639
:101B20002300083883409A468EE6FEF7B3FC020095
:101B30000300153220331C2A00DC4EE6020034007C
:101B4000083A0020944052E6019304E61C4B210021
:101B50009C460300019DD3406544A94019430300FE
:101B6000AB40581E834119430800D4404B0709D0AD
:101B70000F230B40042B05D00B1D8B4280414042AC
:101B800024181800230200D4D6E6012300240022E2
:101B9000A6E50F29AAD1802352461B031A42A9D0D9
:101BA0001C42A7D11C43009B02009B46034B97E5B8
:101BB0000024C1E60024014B220091E5FF0700004C
:101BC0001E040000F0B54E464546DE465746E0B5D9
:101BD00085B0009001910C034F00CE0F610A009C6C
:101BE000B046640F0C4300997F0DC80011001A0025
:101BF0001B039C460091019251004B0D9946019B9D
:101C0000009DD90F63466A0F5B0A1343EA009446AE
:101C10009346C14A03900293914500D1CDE001253E
:101C200069404D467D1BAA468E4200D180E0002DC2
:101C300000DC35E34946002900D1DFE0974200D1BE
:101C400094E152460125382A19DC8022029B1204B5
:101C50001343029352461F2A00DDE3E1534620223C
:101C60006146029DD21A9540D9400D43614691408C
:101C70000A00511E8A411543029ADA40A41A451BF4
:101C8000A84280414042241A230200D43DE164026C
:101C9000640A002C00D147E12000FEF7FBFB0300A3
:101CA000083B20212800CA1AD0409C4002009D40D9
:101CB00022439F4200DD77E1D81B0130091A2C0036
:101CC0008D40C4406B1E9D411300C2408B40254394
:101CD000002714001D436B0709D00F232B40042B52
:101CE00005D02B1DAB42AD416D4264191D0023028E
:101CF00000D440E1884A0137974200D101E1012632
:101D000043468649ED0821404A072A437C054D0297
:101D10002D0B640D1E4024052C43F60734431000A0
:101D2000210005B0F0BCBB46B246A946A046F0BDB6
:101D3000002D00DCD0E24946002900D0D4E0614605
:101D4000029B194300D12BE1691E012D00D1D9E17D
:101D5000954200D10AE10125382917DC8A4653460D
:101D60001F2B00DDE7E12022D21A029B614693403F
:101D70001D005346D940634693401A000D43511E3F
:101D80008A4153461543029ADA40A4182D18854219
:101D9000804140422418230200D4B6E05E4B013754
:101DA0009F4200D1ADE001215C4B6A081C402940F4
:101DB0000A43E507154364088DE7594A029B92469A
:101DC0006246BA441A432CD08E422ED05246002A84
:101DD00060D0002F00D1DBE063460E00029CD808E3
:101DE00062070243E4081300234300D154E2802534
:101DF0002D0325432D03484C2D0B8CE76146029B98
:101E0000194300D1CCE029000139012D00D188E12E
:101E1000954200D1AAE00125382900DD2FE78A4646
:101E200018E7012251408E42D0D15346002B00D1F9
:101E3000BEE0002F00D038E1CA462200024300D1A4
:101E4000E2E15346591E012B00D10DE2324A924580
:101E500000D1D2E10127382913DC1F2900DDEEE192
:101E60002022029B521A250007009A46CC4090403F
:101E70009540CF40A244421E904153462F43074312
:101E800002933D00654465459241029B52424F4694
:101E9000D41880E7234A7D1C154200D0AAE0624690
:101EA0002500029B05431A43002F00D0F5E0002DCA
:101EB00000D16BE1002A00D152E16346C51A029BB2
:101EC000E21AA8429B415B42D31A1A0200D4D5E120
:101ED00063461D1AAC4592410126029B52421C1BCF
:101EE0008846A41A0E40F6E697423FD05246012596
:101EF000382A00DD4AE78022029B12041343029332
:101F00002DE73C000025002205E707232B40002B8E
:101F100000D0E2E66BE0C046FF070000FFFF7FFF56
:101F200001F8FFFFFE0700002800FEF7B3FA0300E8
:101F300018331F2B00DCB4E62A00083882409F4289
:101F400000DDB9E0DB1B581C1F2800DCA0E11500F8
:101F50001F3BDD40202805D040231B1A9A40531E0A
:101F60009A411543072300272B40D0E7C00862079A
:101F70000243E40837E7EA0863071A43D34BE4084F
:101F80009F4200D12FE72403250B7C05640DC2E698
:101F9000CA462200024358D163460E00029C0393B6
:101FA000039B5746DA08E7E7C94CFF1A144092E64C
:101FB000C84D7A1C2A4200D084E022000243002F40
:101FC00000D0EFE0002A00D1E5E0624602990A4322
:101FD00000D1C5E06346C5188C4685428041644403
:101FE00040422418230202D5B94B01371C40BA469F
:101FF0000395D5E76246851AA8429241524291461E
:10200000029BE31A1A004B46D21A130091461A0299
:102010006CD44A464C462A4300D03AE600260024B7
:10202000002578E6029953460D00203AD540202B32
:1020300006D04022D21A0B00934062461A439346C0
:102040005B465A1E93411D4319E653465A1E012B07
:1020500000D1C6E09D4EB24500D1BDE688460E00D7
:102060000125382A10DC1F2A7FDC20212500891A4F
:10207000070088408D40D740D440411E8841029BD4
:102080003D431B1B054302936246551BAC459241E1
:10209000029B52424F469C1AF6E5002D00D0B7E055
:1020A000002A00D1F0E001260E4063460298D908CC
:1020B00042070A43C40896E6854CFF1A144062079B
:1020C000E40860E781498A4200D1C9E06346C1184B
:1020D00081428041029B4042E3181B18DD075C08E7
:1020E000072349080D4317002B4010E763461D1ACC
:1020F000AC4592410126029B52421C1B8846A41A01
:102100000E40C6E56346C518029B854280419C4649
:102110004042644424180127230200D4F5E6022734
:1021200041E66346C51AA8428041029B4042E41A38
:102130000127241AA8E5029D52462B00203AD340DD
:1021400019005346202B06D04022D21A2B00934070
:1021500062461A4393465D466B1E9D410D4315E64C
:102160006207C0080243E4080DE711002700203988
:10217000CF40202A05D040218A1A944025000543EB
:102180000395039D6A1E95413D437DE7002A00D1DA
:1021900044E701260E406346D908029B5A070A43CA
:1021A000DC08F0E6002A28D06246029FC0083A43C5
:1021B00000D1DCE6620710438022E40812031442D7
:1021C00009D0FD08154206D1634601262C00D80827
:1021D0007B0718430E40420FC000C008520702435D
:1021E00001E663461D1AAC459241029B52421C1BFC
:1021F0000E0088460127A41A46E56346D908029BCB
:102200005A070A43DC08EEE56346029C0393C7E6DF
:10221000C008002A00D1AAE6620710438022E40821
:1022200012031442D7D0029FFD081542D3D1634652
:102230000126D8087B072C0018430E40CBE70A0084
:102240002700203AD740202905D04022521A944036
:10225000250005430395039D6A1E95412F4310E613
:1022600014000025002256E5029B60449946604513
:1022700092414C4452420500A4184CE71A001C003D
:102280002A4300D0B3E6C9E6802400262403AEE545
:1022900020210025091A17E5002200250B4C3AE5FC
:1022A000002D00D1F6E54B46DA1B9246002F00D1F7
:1022B0006FE6382A05DC80263604344388460E0053
:1022C000D1E688460E000125DEE6C046FF07000085
:1022D000FFFF7FFFFE070000002D00D168E64B46A0
:1022E000D91B002F01D18A46A7E50127382900DD37
:1022F000C7E5802212041443AFE5C0460B0002007C
:1023000070B5164D0C0382B0490000200092019375
:10231000240B490DDE0FA94204DD1148814203DD83
:10232000104BF01802B070BD8020400320430E4CCB
:10233000641A1F2C08DD0D4B5B1AD840030058426D
:10234000002EEFD11800EDE7094B009A9C460300E0
:1023500061448B40E2401343F1E7C046FE030000B6
:102360001D040000FFFFFF7F330400001304000082
:10237000EDFBFFFF70B5002816D0C317C5185D40F0
:10238000C40F2800FEF786F8104B1B1A5B055B0D87
:102390000A2814DC02002E00153296400B22121A75
:1023A000D5402D032D0B03E000240023002500263B
:1023B0001B052B43E40723433000190070BD0B3885
:1023C00085402D0300262D0BF2E7C0461E040000B9
:1023D00010B5041E10D0FEF75DF80E4B1B1A5B05FE
:1023E0005B0D0A280FDC0B222100121AD140153098
:1023F0000A038440120B01E0002300221B05134353
:102400002000190010BD22000B3882401203002466
:10241000120BF3E71E04000010B5002903D1FEF7EC
:1024200039F8203002E00800FEF734F810BDC0464D
:1024300080B584B000AF3B1D18000C231A000021AA
:102440000AF0ACF92D4B2E4A1A602C4BC022120612
:102450005A602A4B00229A60284B0022DA60274BF0
:1024600000221A61254B04225A61244B00221A765D
:10247000224B00225A76214B00229A761F4B0122D2
:10248000DA611E4B2022002199541C4B00225A6213
:102490001A4B00229A62194B2C2200219954174B97
:1024A00000221A63154B00225A63144B00229A63D0
:1024B000124B3C2200219954104B0022DA640F4B3E
:1024C000180001F0F5F9031E01D000F0B9FD3B1D25
:1024D0000C4A1A603B1D00225A603B1D00229A6084
:1024E0003A1D064B1100180002F02CF8031E01D013
:1024F00000F0A6FDC046BD4604B080BDC801002066
:10250000002401402000001490B599B000AF78601D
:102510004C23FB18180014231A0000210AF03EF97E
:1025200014243B19180038231A0000210AF036F948
:102530007B681B68204A934239D13B198022D20123
:102540001A603B1900221A633B19180004F0F2FAD2
:10255000031E01D000F074FD184B1A6E174B80213A
:1025600049030A431A66154B1A6E80235B03134016
:102570003B613B69114BDA6C104B01210A43DA6471
:102580000E4BDB6C01221340FB60FB684C217B1877
:1025900002221A607B1803225A607B1800229A607C
:1025A0007A18A023DB051100180002F033FEC046A4
:1025B000BD4619B090BDC046002401400010024045
:1025C00080B582B000AF78607B681B68094A93428F
:1025D0000BD1094B1A6E084B08490A401A66A02312
:1025E000DB050221180003F047F8C046BD4602B0E3
:1025F00080BDC0460024014000100240FFFFEFFFF5
:1026000090B58BB000AF14243B19180014231A00A6
:1026100000210AF0C3F87C4BDA6C7B4B04210A439F
:10262000DA64794BDB6C042213403B613B69764BE7
:10263000DA6C754B20210A43DA64734BDB6C202281
:102640001340FB60FB68704BDA6C6F4B01210A434F
:10265000DA646D4BDB6C01221340BB60BB686A4BD4
:10266000DA6C694B02210A43DA64674BDB6C0222A5
:1026700013407B607B6888235900A023DB0501227F
:10268000180003F02DF9C023DB0060480022190078
:1026900003F026F98023D900A023DB0500221800CF
:1026A00003F01EF93B19E02212021A603B190322C3
:1026B0005A603B1900229A603B19554A19001000D4
:1026C00002F0A8FD3B190F221A603B1903225A6041
:1026D0003B1900229A603B194E4A1900100002F083
:1026E00099FD3B194C4A1A603B1903225A603B1969
:1026F00000229A603A19A023DB051100180002F0AD
:1027000089FD3B1908221A603B19882252035A603E
:102710003B1900229A603A19A023DB05110018002A
:1027200002F078FD21007B18A222D2001A600C0072
:102730003B1901225A603B1900229A603B19002282
:10274000DA603A19A023DB051100180002F062FDDF
:102750003B19324A1A603B1903225A603B19002286
:102760009A603B19294A1900100002F053FD21001C
:102770007B18C022D2001A600C003B1901225A605B
:102780003B1900229A603B190022DA603B191F4A6C
:102790001900100002F03EFD3B19802292001A60E1
:1027A0003B1900225A603B1900229A603A19A02373
:1027B000DB051100180002F02DFD21007B1880229E
:1027C00012011A607B18842292035A607B1800223F
:1027D0009A607A18A023DB051100180002F01AFD98
:1027E00000220021062002F0CBFC062002F0E8FCCB
:1027F00000220021072002F0C3FC072002F0E0FCC9
:10280000C046BD460BB090BD001002400004005011
:102810000008005000140050059000003FF900002F
:1028200090B58DB00AAF00F02CFE00F05BF9FFF719
:10283000E7FE00F015FC00F04BFD934B180007F08D
:1028400059FB09F057FCBB1D00221A80B91DE82373
:10285000DB000222180009F09BFD8C4B1868BB1DA1
:102860001B881A008A4B190007F052FB894B8A4AD1
:102870001A60884B894A9A60894B1B68854A100008
:102880009847874B1B69874A10009847844B1C6AFE
:102890000023089300230793002306930023059346
:1028A000012304930023039308230293012301933C
:1028B000072300930023002216210120A047784B14
:1028C000DC69012309930023089300230793002365
:1028D000069301230593002304930023039300230D
:1028E0000293082301930023009301230722002170
:1028F0000120A047654B1B686B4A1100180007F0C8
:1029000007FB674B9B6B00209847654B9B6E984776
:1029100000F020FA654B1B78DBB2012B1FD1644B12
:1029200073221A70624B02225A70614B01229A7014
:10293000604B180000F05AF90300DAB25C4BDA7011
:102940005B4B0022DA7200F0B7F9504B1B685A4A11
:102950001100180007F078FB544B00221A70544BFA
:10296000DB7A012B18D1524B1B7B002B14D100F0CA
:10297000F9FD0200514B1B68D31A514A93420BD9FF
:10298000424B18684A4B1B781A004E4B190007F04F
:102990000DFB474B0022DA724B4B1B78012BB4D155
:1029A000494B46229B5C732B04D0474B46229B5CD1
:1029B000FF2B54D1444B47229B5C032B12D0042B9A
:1029C0002ED13B4B0022DA72394B01221A732F4B66
:1029D00018683D4B46229B5C1A003C4B190007F0DF
:1029E00097FA1EE0384B49229B5C1A0013005B01EA
:1029F0009B1A9B009B18DB001A00354B1A60234B77
:102A00001868334B1A68334B190007F081FA324BC0
:102A100001221A7000F0A6FD0200304B1A6000E09F
:102A2000C046294B51229B5C012B18D1264B4622D4
:102A30009A5C1F4B1A701E4B04225A701C4B0022CA
:102A40009A701B4B0022DA7200F036F90F4B1868AF
:102A5000174B1B781A00224B190007F0F5FA1A4B96
:102A600000221A70184B452200219954164B462219
:102A700000219954144B472200219954124B4822AB
:102A80000021995441E7C0468D2C00080000002029
:102A900054D200082C020020492F0008612F0008A2
:102AA00084D80008C0DC033768D200084C0200203C
:102AB00004000020200000147CD20008A4020020A2
:102AC000881300009CD2000850020020B8D20008F1
:102AD000A8020020D0D20008B0020020AC020020E2
:102AE000ECD2000890B597B000AF10243B19180045
:102AF00048231A00002109F051FE3B001800102362
:102B00001A00002109F04AFE80239B00180002F001
:102B10004BFF21007B1810221A607B180122DA611A
:102B20007B1800221A627B18B0225A627B1800229E
:102B30009A627B18180002F0B5FF031E01D000F066
:102B40007FFA3B0007221A603B0000225A603B00DC
:102B500000229A603B000022DA603B00012118004D
:102B600003F024FD031E01D000F06AFAC046BD4602
:102B700017B090BD80B582B000AF0200BB1D1A80B7
:102B8000BB1D1B88082B01D108F050FAC046BD467A
:102B900002B080BD80B584B000AF0200BB1D1A80BA
:102BA000BB1D1A8880231B019A4217D10023FB60AA
:102BB00003E0C046FB680133FB60FB68094A9342AF
:102BC000F7D980231A01A023DB051100180002F0B9
:102BD0005BFE031E02D1044B01221A70C046BD46A3
:102BE00004B080BDBFD401004C02002080B586B087
:102BF00000AF786000237B610823FB1818000C23CA
:102C00001A00002109F0CAFDFFF712FC1E4B180044
:102C100002F002F9031E01D000F012FA08217B181D
:102C20007A681A607B1800225A607B1800229A602A
:102C30007A18154B1100180001F084FC031E01D016
:102C400000F0FEF9104B180001F010FB031E01D03C
:102C500000F0F6F901235A420B4B1100180001F065
:102C6000B1FB094B180001F061FB074B180001F0A4
:102C70004DFC03007B61044B180001F04BFA7B69AB
:102C80001800BD4606B080BDC801002080B582B0E6
:102C900000AF78607B681800FDF736FA03009AB23F
:102CA000FA239B007968034806F0E2F8C046BD4667
:102CB00002B080BD1C03002080B592B000AF224B53
:102CC00000221A73204B1A783B1D1A701E4B5A783B
:102CD0003B1D5A701C4BDA7A3B1D9A701A4B9A783E
:102CE0003B1DDA704723FB1800221A700FE04720C3
:102CF0003B181A783B181B78043313498A18D1788B
:102D00003A1DD1543B181A783B1801321A700E4BF9
:102D10009B784722BA1812789A42E8D30A4BDB7A9A
:102D2000012B04D100F01EFC0200084B1A60084B76
:102D3000DB6A054A92780432D1B23A1D10009847F6
:102D4000C046BD4612B080BD04000020A402002091
:102D500084D8000880B500AF704B1B78012B15D1CB
:102D600000F000FC02006E4B1B68D21A6D4B1B6812
:102D70009A420BD96C4B1B78002B07D100F0F2FB69
:102D80000200674B1A60684B01221A70634B1B7874
:102D9000012B00D0BEE0644B1B78012B00D0B9E0C2
:102DA0008023D900A023DB050122180002F098FD42
:102DB00000F0D8FB02005A4B1B68D21AFA235B00C2
:102DC0009A4220D9594B1B78002B1CD100F0CAFB2A
:102DD0000200534B1A60564B1B68564A11001800EC
:102DE00007F096F880239B0053480022190002F058
:102DF00077FD8023DB0050480122190002F070FDAE
:102E00004A4B01221A7000F0ADFB0200444B1B68D4
:102E1000D31A4A4A934219D9444B1B78012B15D136
:102E200000F0A0FB02003E4B1A6080239B0042484A
:102E30000022190002F054FD8023DB003E480022EE
:102E4000190002F04DFD394B02221A7000F08AFB86
:102E50000200334B1B68D31A384A934219D9334BBB
:102E60001B78022B15D100F07DFB02002C4B1A6061
:102E700080239B0030480122190002F031FD80239D
:102E8000DB002D480022190002F02AFD274B032207
:102E90001A7000F067FB0200214B1B68D31A274A07
:102EA000934237D9214B1B78032B33D180239B00CE
:102EB00021480022190002F013FD8023DB001E4888
:102EC0000022190002F00CFD8023D900A023DB05AD
:102ED0000022180002F004FD144B00221A70124B5D
:102EE00000221A700D4B00221A70154B73221A70B3
:102EF000134B06225A70124B00229A70104B01227B
:102F0000DA72FFF7D9FE0A4B1B680E4A110018004F
:102F100007F09AF8C046BD4680BDC046B00200200A
:102F2000AC020020A8020020B1020020B202002062
:102F30000000002008D3000800040050581B0000C7
:102F40000400002014D3000880B500AF034B9B6B36
:102F500000209847C046BD4680BDC04684D80008C2
:102F6000B0B586B000AFF8600C00100019000A255B
:102F70007B19221C1A8008243B19021C1A80FB1D95
:102F80000A1C1A702C4B01221A702B4B3A1912880A
:102F90005A80294BFA1D12781A717B191B88D9B2F5
:102FA000254B45229954254B40220021180009F059
:102FB000F5FB214B45229B5C1A00F9681F4B18005A
:102FC00009F032FC1C4B59791B4B462299541A4B81
:102FD0009979194B47229954174BD979164B51229D
:102FE0009954154B197A144B482299541723FB18FE
:102FF00000221A7013E017243B191B781A1D3B1985
:103000001B780D498A1850790B4A4921D3185B184F
:10301000021C1A703B191A783B1901321A70064BC0
:1030200048229B5C1722BA1812789A42E3D3C04612
:10303000C046BD4606B0B0BD50020020550200207B
:1030400080B500AF72B6C046C046FDE780B582B01D
:1030500000AF78603960C046BD4602B080BD000058
:1030600080B500AF1B4B1C4A1A601A4B82225200DB
:103070005A60184B00229A60164BE022D200DA60A8
:10308000144B00221A61134B00225A61114B80220B
:1030900092009A610F4B0822DA610E4B00221A62ED
:1030A0000C4B00225A620B4B00229A62094B0722FA
:1030B000DA62084B00221A63064B08225A63054B5A
:1030C000180004F073FD031E01D0FFF7B9FFC046DE
:1030D000BD4680BDB40200200030014090B58BB0E9
:1030E00000AF786014243B19180014231A00002143
:1030F00009F054FB7B681B681B4A934230D11B4B81
:103100001A6E1A4B802149010A431A66174B1A6E30
:1031100080235B0113403B613B69144BDA6C134B1A
:1031200001210A43DA64114BDB6C01221340FB607E
:10313000FB6821007B18E0221A607B1802225A608B
:103140007B1800229A607B180022DA607B18052227
:103150001A617A18A023DB051100180002F05AF852
:10316000C046BD460BB090BD00300140001002408B
:1031700080B582B000AF0F4B9A6D0E4B8021490590
:103180000A439A650B4B9A6D80235B0513407B6065
:103190007B68084B1A6E074B01210A431A66054BE0
:1031A0001B6E012213403B603B68C046BD4602B027
:1031B00080BDC0460010024080B500AFC046FDE7AC
:1031C00080B500AFC046FDE780B500AFC046BD4644
:1031D00080BD80B500AFC046BD4680BD80B500AFA4
:1031E00000F0B0F9C046BD4680BD80B500AF0820F4
:1031F00002F0B0FBC046BD4680BD80B500AF802365
:103200001B01180002F0A6FBC046BD4680BD0000B1
:1032100080B586B000AF7860144A154BD31A7B6135
:103220007B693B61134B1B68002B02D1114B124A87
:103230001A60104B1A687B68D3183A699A4207D211
:1032400009F0C6FA03000C221A6001235B4209E070
:10325000084B1B68FB60074B1A687B68D218054B4C
:103260001A60FB681800BD4606B080BD0020002033
:1032700000040000180300209006002080B500AF75
:10328000114B802212059A60104A8023D258802365
:103290005B021A4080235B029A4212D10B4B1B6ADD
:1032A000FF221340CC2B0CD0084B1B6AFF2213408B
:1032B000AA2B06D0054B1A68044B8021C9020A4389
:1032C0001A60C046BD4680BD00ED00E0002002400F
:1032D00080B500AF234B244A1A60224BE1225202F0
:1032E0005A60204B00229A601E4B0022DA601D4B70
:1032F00000221A611B4B0C225A611A4B00229A6160
:10330000184B0022DA61174B00221A62154B00227B
:103310005A62144B00229A62124B180005F0F4FC1A
:10332000031E01D0FFF78CFE0E4B0021180006F0A3
:103330006FFC031E01D0FFF783FE0A4B002118002B
:1033400006F0EEFC031E01D0FFF77AFE054B1800D5
:1033500006F0FEFB031E01D0FFF772FEC046BD461D
:1033600080BDC0461C0300200038014090B599B0D4
:1033700000AF78604C23FB18180014231A000021BA
:1033800009F00CFA14243B19180038231A00002104
:1033900009F004FA7B681B68224A93423DD13B192D
:1033A00001221A603B1900225A603B19180003F0F1
:1033B000C1FB031E01D0FFF743FE1B4B1A6E1A4BD5
:1033C0008021C9010A431A66174B1A6E8023DB015C
:1033D00013403B613B69144BDA6C134B02210A43E7
:1033E000DA64114BDB6C02221340FB60FB684C215A
:1033F0007B18C0221A607B1802225A607B180022B8
:103400009A607B180022DA607B1807221A617B1809
:10341000064A1900100001F0FDFEC046BD4619B075
:1034200090BDC0460038014000100240000400502A
:103430000D488546FFF722FF0C480D490D4A002331
:1034400002E0D458C4500433C4188C42F9D30A4A59
:103450000A4C002301E013600432A242FBD309F0BE
:10346000BDF9FFF7DDF9FEE7002000200000002095
:10347000AC01002010DA0008AC0100208C0600200E
:10348000FEE780B582B000AFFB1D00221A7003205A
:1034900000F00EF8031E03D0FB1D01221A7001E09C
:1034A000FFF766FEFB1D1B781800BD4602B080BD0D
:1034B00090B585B000AF78600F23FB1800221A701A
:1034C0001D4B1B68002B2BD01C4B1C681A4B1B6818
:1034D0001900FA239800FCF729FE030019002000C8
:1034E000FCF724FE0300180001F086FE031E12D133
:1034F0007B68032B0AD8796801235B4200221800FD
:1035000001F03EFE0E4B7A681A600DE00F23FB18A7
:1035100001221A7008E00F23FB1801221A7003E041
:103520000F23FB1801221A700F23FB181B781800B9
:10353000BD4605B090BDC0461C0000201400002010
:103540001800002080B500AF044B1A68044B1B68BC
:10355000D218024B1A60C046BD4680BDB0030020A1
:103560001C00002080B500AF024B1B681800BD4650
:1035700080BDC046B003002080B584B000AF786045
:10358000FFF7F0FF0300BB607B68FB60FB68013363
:1035900004D0094B1B68FA68D318FB60C046FFF7DC
:1035A000E1FF0200BB68D31AFA689A42F7D8C04616
:1035B000C046BD4604B080BD1C00002080B582B06E
:1035C00000AF786039607B681B68054A1A403B6829
:1035D0001A437B681A60C046BD4602B080BDC04633
:1035E000FFFF3FFE80B582B000AF78607B681A684D
:1035F000E0235B0413401800BD4602B080BD80B5D7
:1036000084B000AFF860B9607A60FB685B69BA6843
:1036100004210A40072191400A00D2431A40BB68A6
:1036200004210B40796899400B001A43FB685A61EA
:10363000C046BD4604B080BD80B582B000AF7860A2
:1036400039607B685B693A6804210A400721914030
:103650000A001A403B6804210B40DA4013001800AE
:10366000BD4602B080BD80B582B000AF78607B6897
:10367000DA68C0231B01134001D1012300E00023BD
:103680001800BD4602B080BD80B584B000AFF860C0
:10369000B9607A60FB689B6ABA681F210A400F21F3
:1036A00091400A00D2431A407B689B0E0F211940BB
:1036B000BB681F20034099400B001A43FB689A62C5
:1036C000C046BD4604B080BD80B582B000AF786012
:1036D00039607B689A6A3B685B025B0A1A437B68C5
:1036E0009A62C046BD4602B080BD80B582B000AFD0
:1036F000786039607B689B6A3A685202520AD2430A
:103700001A407B689A62C046BD4602B080BD000088
:1037100080B584B000AFF860B9607A60FB685B691F
:10372000BA681202D2431A40BB681B0279680B4088
:1037300004490B401A43FB685A61C046BD4604B0B9
:1037400080BDC04600FFFF7F80B582B000AF7860CB
:103750007B689B68054A1340802252051A437B68A8
:103760009A60C046BD4602B080BDC046E8FFFF6F0C
:1037700080B582B000AF78607B689B68034A1A40CE
:103780007B689A60C046BD4602B080BDE8FFFF6F0F
:1037900080B582B000AF78607B689A6880235B0553
:1037A0001A4080235B059A4201D1012300E00023E7
:1037B0001800BD4602B080BD80B582B000AF786011
:1037C0007B689B68044A134001221A437B689A6015
:1037D000C046BD4602B080BDE8FFFF7F80B582B025
:1037E00000AF78607B689B68044A134002221A434A
:1037F0007B689A60C046BD4602B080BDE8FFFF7F8F
:1038000080B582B000AF78607B689B68012213406E
:10381000012B01D1012300E000231800BD4602B0B6
:1038200080BD80B582B000AF78607B689B68022263
:103830001340022B01D1012300E000231800BD46F4
:1038400002B080BD80B582B000AF78607B689B68B5
:10385000044A134004221A437B689A60C046BD465E
:1038600002B080BDE8FFFF7F80B582B000AF786016
:103870007B689B68044A134010221A437B689A6055
:10388000C046BD4602B080BDE8FFFF7F80B582B074
:1038900000AF78607B689B6804221340042B01D141
:1038A000012300E000231800BD4602B080BD0000E7
:1038B00080B588B000AF78601F23FB1800221A7013
:1038C0000023BB6100237B610023FB607B68002B2E
:1038D00002D1012300F00FFC7B681B68C34A9342AE
:1038E00007D08C23FF331A00C14B11001800FFF7DB
:1038F000ADFB7B685A68C0231B069A4258D07B6890
:103900005A688023DB059A4252D07B685A6880232C
:103910001B069A424CD07B685B68002B48D07B68C2
:103920005A688023DB029A4242D07B685A6880231F
:103930001B039A423CD07B685A68C0231B039A42FF
:1039400036D07B685A6880235B039A4230D07B680C
:103950005A68A0235B039A422AD07B685A68C02326
:103960005B039A4224D07B685A68E0235B039A4247
:103970001ED07B685A6880239B039A4218D07B68CC
:103980005A6890239B039A4212D07B685A68A023FE
:103990009B039A420CD07B685A68B0239B039A42DF
:1039A00006D0C6235A00924B11001800FFF74EFBB9
:1039B0007B689B68002B13D07B689B68082B0FD01B
:1039C0007B689B68102B0BD07B689B68182B07D0FB
:1039D0008E23FF331A00864B11001800FFF736FBC9
:1039E0007B68DB68002B0AD07B68DB68202B06D065
:1039F000C7235A007E4B11001800FFF727FB7B6896
:103A00001B69002B18D07B681A6980239B039A429C
:103A100012D07B681A6980231B069A420CD07B68FF
:103A20001B69744A934207D09023FF331A00704BEE
:103A300011001800FFF70AFB7B689B7E002B0AD061
:103A40007B689B7E012B06D0C8235A00684B11006F
:103A50001800FFF7FBFA7B689B6A002B19D07B6884
:103A60009A6A8023DB009A4213D07B689A6A80238B
:103A70001B019A420DD07B689A6AC0231B019A42AF
:103A800007D09223FF331A00594B11001800FFF79B
:103A9000DDFA7B685A6A8023DB009A422ED07B686D
:103AA0005A6A8823DB009A4228D07B685A6A90239E
:103AB000DB009A4222D07B685A6A9823DB009A4244
:103AC0001CD07B685A6AA023DB009A4216D07B6820
:103AD0005A6AA823DB009A4210D07B685A6AB8233E
:103AE000DB009A420AD07B685B6A002B06D0C923B0
:103AF0005A003F4B11001800FFF7A8FA7B682C22F0
:103B00009B5C002B0CD07B682C229B5C012B07D08C
:103B10009423FF331A00364B11001800FFF796FA72
:103B20007B685B69042B0AD07B685B69082B06D035
:103B3000CA235A002E4B11001800FFF787FA7B6842
:103B40001B6B002B0DD07B681A6B80235B019A42A4
:103B500007D09623FF331A00254B11001800FFF7FA
:103B600075FA7B681B7E002B0AD07B681B7E012BBD
:103B700006D0CB235A001E4B11001800FFF766FA3F
:103B80007B685B7E002B0BD07B685B7E012B07D0B4
:103B90009823FF331A00164B11001800FFF756FA4E
:103BA0007B685B6B002B29D07B685B6B012B25D07E
:103BB0007B685B6B022B21D07B685B6B032B1DD07A
:103BC0007B685B6B042B19D07B685B6B052B15D076
:103BD0007B685B6B062B11D07B685B6B072B0DD072
:103BE000CC235A00024B1100180005E000240140CC
:103BF0003CD3000804000080FFF728FA7B689B6B29
:103C0000002B23D07B689B6B012B1FD07B689B6BA9
:103C1000022B1BD07B689B6B032B17D07B689B6BA5
:103C2000042B13D07B689B6B052B0FD07B689B6BA1
:103C3000062B0BD07B689B6B072B07D09A23FF3397
:103C40001A00B94B11001800FFF700FA7B683C22FC
:103C50009B5C002B0BD07B683C229B5C012B06D02D
:103C6000CD235A00B04B11001800FFF7EFF97B6825
:103C70003C229B5C012B00D066E07B681B6C002B18
:103C800023D07B681B6C042B1FD07B681B6C082B1C
:103C90001BD07B681B6C0C2B17D07B681B6C102B0C
:103CA00013D07B681B6C142B0FD07B681B6C182BFC
:103CB0000BD07B681B6C1C2B07D09E23FF331A0094
:103CC000994B11001800FFF7C1F97B685B6C002B62
:103CD00028D07B685B6C202B24D07B685B6C402BEE
:103CE00020D07B685B6C602B1CD07B685B6C802B6E
:103CF00018D07B685B6CA02B14D07B685B6CC02BEE
:103D000010D07B685B6CE02B0CD07B685A6C8023F6
:103D10005B009A4206D0CF235A00834B1100180053
:103D2000FFF794F97B689B6C002B0DD07B689A6C35
:103D300080239B009A4207D0A023FF331A007A4BBE
:103D400011001800FFF782F97B68DB6C002B0DD0A7
:103D50007B68DA6C80239B059A4207D0A223FF334D
:103D60001A00714B11001800FFF770F97B681B698E
:103D7000002B27D07B6820229B5C002B0CD07B681B
:103D800020229B5C012B07D0A623FF331A00664B31
:103D900011001800FFF75AF97B681A6980239B030A
:103DA0009A420FD17B68DB69002B03D07B68DB690B
:103DB000082B07D9AA23FF331A005B4B1100180008
:103DC000FFF744F97B6820229B5C012B0BD17B68B9
:103DD0009B7E012B07D1B023FF331A00524B1100F9
:103DE0001800FFF733F97B689B6D002B0AD17B68C5
:103DF0001800FEF789FB7B680022DA657B68542295
:103E0000002199547B681B681800FFF7C1FC031E52
:103E100015D17B681B681800FFF796FC434B1B68A5
:103E200043491800FCF782F9030001335B00FB6093
:103E300002E0FB68013BFB60FB68002BF9D17B686B
:103E40001B681800FFF7A4FC031E0FD17B689B6D55
:103E500010221A437B689A657B68DB6D01221A4346
:103E60007B68DA651F23FB1801221A707B681B68C8
:103E70001800FFF70BFD03003B617B689B6D102270
:103E8000134000D02AE13B69002B00D026E17B687B
:103E90009B6D284A134002221A437B689A657B680F
:103EA0001B681800FFF7ACFC031E00D0B5E07B6870
:103EB0009A687B681B7E9B031A437B685B7EDB03EF
:103EC0001A437B689B7E5B031A437B681B6B002B4A
:103ED00002D080235B0100E000231A437B68DB688B
:103EE0001A437B681B69002B04DA7B681B695B0043
:103EF0005B0801E080239B031A437B682C215B5CF9
:103F00005B001343BA691343BB617B6820229B5C4F
:103F1000012B1DD17B689B7E002B0DD1BB698022BC
:103F200052021343BB6113E03CD30008140000208D
:103F3000400D0300FDFEFFFF7B689B6D20221A43AE
:103F40007B689A657B68DB6D01221A437B68DA65C2
:103F50007B685B6A002B0AD07B685A6AE0235B00AF
:103F60001A407B689B6A1343BA691343BB617B6841
:103F70001B68DB68624A134019007B681B68BA69DA
:103F80000A43DA607B685B689B0F9A077B68DB6C8F
:103F900013437A6913437B617B683C229B5C012B52
:103FA00011D17B685B689B0F9A077B681B6C1A4377
:103FB0007B685B6C1A437B689B6C1A437B69134379
:103FC000012213437B617B681B681B694D4A1340C8
:103FD00019007B681B687A690A431A617B685A6812
:103FE000C0231B069A4218D07B685A688023DB05E1
:103FF0009A4212D07B685A6880231B069A420CD0E2
:10400000414B1B68414A134019007B685A68F023F2
:104010009B031A403C4B0A431A607B6818687B6814
:104020005B6B1A000021FFF7EAFA7B6818687B686F
:104030009B6B37491A00FFF7E2FA7B681B69002B7C
:1040400009D17B681B689A6A7B681B68102149420A
:104050000A439A6218E07B681A6980239B039A429C
:1040600012D17B681B689B6A7B68DB69013B9B0004
:104070001C221340102252429A4011007B681A6E93
:104080007B681B680A439A627B681B6800211800E2
:10409000FFF7D2FA02007B685B6B9A420BD17B6818
:1040A0000022DA657B689B6D0322934301221A4349
:1040B0007B689A651CE07B689B6D122293431022FB
:1040C0001A437B689A657B68DB6D01221A437B6823
:1040D000DA651F23FB1801221A7009E07B689B6DCB
:1040E00010221A437B689A651F23FB1801221A705D
:1040F0001F23FB181B781800BD4608B080BDC046C2
:104100000102DEFF02FCFF1F08270140FFFFC3FF83
:1041100004FFFF7FB0B584B000AF78607B68002BF0
:1041200001D101238DE07B681B68484A934206D089
:10413000BB239A00464B11001800FEF787FF7B68EF
:104140009B6D02221A437B689A650F257C197B6858
:10415000180000F091FC030023707B191B78002BE2
:1041600012D17C197B68180000F060FD03002370F9
:104170007B191B78002B02D17B6801229A657B6832
:104180001B681800FFF7F4FA7B681B685A687B68A5
:104190001B6830490A405A607B681B682E4A1A60C7
:1041A0007B681B68DA687B681B682C490A40DA6008
:1041B0007B681B685A697B681B6807218A435A61C0
:1041C0007B681B689B6A7B681B6800229A627B681D
:1041D0001B681A6A7B681B6821490A401A627B685F
:1041E0001B685A6A7B681B681D490A405A627B68D3
:1041F0001B68DA6A7B681B6819490A40DA627B68C7
:104200001B681A697B681B68920092081A61154B3B
:104210001A68144B14490A401A607B681800FEF7AC
:10422000CFF97B6800221A667B680022DA657B681A
:1042300000229A657B685422002199540F23FB18B1
:104240001B781800BD4604B0B0BDC0460024014034
:104250003CD3000860F4FFFF9F0B000000021E83A8
:1042600000F000F008270140FFFF03FEB0B584B066
:1042700000AF78607B681B68284A934205D0284AC3
:10428000284B11001800FEF7E1FE7B681B68180040
:10429000FFF7FCFA031E35D17B6854229B5C012B8F
:1042A00001D1022335E07B685422012199540F2566
:1042B0007C197B68180000F033FC030023707B1925
:1042C0001B78002B19D17B689B6D174A1340802205
:1042D00052001A437B689A657B680022DA657B6826
:1042E0001B681C221A607B685422002199547B6849
:1042F0001B681800FFF7A6FA08E07B68542200212B
:10430000995403E00F23FB1802221A700F23FB18A5
:104310001B781800BD4604B0B0BDC0460024014063
:104320009F0400003CD30008FEF0FFFFB0B584B04E
:1043300000AF78607B681B681E4A934205D01E4A16
:104340001E4B11001800FEF781FE7B6854229B5C17
:10435000012B01D1022329E07B68542201219954C9
:104360000F257C197B68180000F086FB0300237082
:104370007B191B78002B12D17C197B68180000F088
:1043800055FC030023707B191B78002B07D17B6839
:104390009B6D0B4A134001221A437B689A657B6828
:1043A0005422002199540F23FB181B781800BD4696
:1043B00004B0B0BD00240140E20400003CD300087A
:1043C000FEFEFFFF80B584B000AF786039607B6887
:1043D0001B684A4A934205D0494A4A4B11001800CB
:1043E000FEF734FE7B685B69082B02D10823FB6073
:1043F0000FE07B681B68DB680122134007D07B68F5
:104400009B6D20221A437B689A65012372E0042386
:10441000FB60FFF7A7F80300BB601FE03B680133B8
:104420001CD0FFF79FF80200BB68D31A3A689A4283
:1044300002D33B68002B11D17B681B681B68FA68AC
:1044400013400BD17B689B6D04221A437B689A65ED
:104450007B6854220021995403234BE07B681B683E
:104460001B68FA681340D9D07B689B6D802292004C
:104470001A437B689A657B681B681800FFF7F3F89E
:10448000031E2ED07B689B7E002B2AD17B681B6885
:104490001B6808221340082B23D17B681B68180077
:1044A000FFF7F4F9031E10D17B681B685A687B681C
:1044B0001B680C218A435A607B689B6D124A13402B
:1044C00001221A437B689A650BE07B689B6D202272
:1044D0001A437B689A657B68DB6D01221A437B680F
:1044E000DA657B681B7E002B03D17B681B680C227E
:1044F0001A6000231800BD4604B080BD00240140AE
:10450000160500003CD30008FEFEFFFF80B582B018
:1045100000AF78607B681B68074A934205D0074A62
:10452000074B11001800FEF791FD7B681B681B6CA0
:104530001800BD4602B080BD0024014055070000B0
:104540003CD3000890B58BB000AF7860396027236A
:10455000FB1800221A700023FB607B681B68AA4AC4
:10456000934205D0A94AAA4B11001800FEF76EFD30
:104570003B681B68012B00D17DE03B681B68A54AA6
:10458000934200D177E03B681B68A34A934200D175
:1045900071E03B681B68A14A934200D16BE03B6825
:1045A0001B689F4A934200D165E03B681B689D4AA7
:1045B000934200D15FE03B681B689B4A93425AD00C
:1045C0003B681B68994A934255D03B681B68984AE0
:1045D000934250D03B681B68964A93424BD03B684D
:1045E0001B68954A934246D03B681B68934A9342A6
:1045F00041D03B681B68924A93423CD03B681B68A1
:10460000904A934237D03B681B688F4A934232D01E
:104610003B681B688D4A93422DD03B681B688C4ACF
:10462000934228D03B681B688A4A934223D03B6858
:104630001B68894A93421ED03B681B68874A934295
:1046400019D03B681B68864A934214D03B681B68AC
:10465000844A93420FD03B681B68834A93420AD036
:104660003B681B68814A934205D0814A684B110020
:104670001800FEF7EBFC3B689B68002B0AD03B68F8
:104680009B687C4A934205D07B4A614B110018001D
:10469000FEF7DCFC7B681A6980231B069A4204D073
:1046A0007B681B69754A93420ED13B685B68012B9E
:1046B0003ED03B685B68022B3AD0714A544B1100E4
:1046C0001800FEF7C3FC33E07B68DB69002B03D0E6
:1046D0007B68DB69082B05D96A4A4D4B110018002D
:1046E000FEF7B4FC3B685B68002B21D03B685B683D
:1046F000042B1DD03B685B68082B19D03B685B68B6
:104700000C2B15D03B685B68102B11D03B685B68A5
:10471000142B0DD03B685B68182B09D03B685B6895
:104720001C2B05D0584A3A4B11001800FEF78EFC9E
:104730007B6854229B5C012B01D1022383E17B68BF
:104740005422012199547B681B681800FFF79EF8DA
:10475000031E00D066E13B685B68022B00D11AE1C2
:104760007B681A6980231B069A4204D07B681B6908
:10477000424A934208D17B681A683B681B6819005B
:104780001000FEF7A1FFA2E07B681A6E3B685B6831
:104790001F210B400F2199400B00DB4313401C00ED
:1047A0003B681B685B025B0A05D13B681B689B0E7C
:1047B0001F221A4070E03B681B68BB611F237B61AE
:1047C000BB693B61BB695B08BB610EE03B695B0099
:1047D0003B61BB69012213403A6913433B617B692A
:1047E000013B7B61BB695B08BB61BB69002BEDD101
:1047F0003A697B699A4013003B613B69FB61FB6945
:10480000002B43D1202346E000240140E4080000AF
:104810003CD3000802000004040000080800000C5B
:104820001000001020000014400000188000001C40
:104830000001002000020024000400280008002CD1
:104840000010003000200034004000380080003CA0
:104850000000014000000244000004480000084C31
:10486000000800AC001000B0002000B4000008CC2C
:10487000E508000004FFFF7FE60800000400008058
:10488000EB080000EF080000F1080000F869FBF7F2
:1048900001FE0300DBB21A003B685B681F210B407E
:1048A0009A40130022001A437B681A663B685B68D3
:1048B0009B085A1C7B68DB699A4208D87B68186899
:1048C0003B6859683B681B681A00FEF7DDFE7B6891
:1048D00018683B6819683B689B681A00FEF718FF68
:1048E0003B681B68002B00DBA6E0594B1800FEF765
:1048F00079FE03003B623B681B68564A934222D113
:104900003A6A80231B0413401DD13B6A80221204A3
:1049100013434F4A19001000FEF750FE4E4B1B6820
:104920004E491800FBF702FC03005A1C13005B0001
:104930009B189B00FB6002E0FB68013BFB60FB688F
:10494000002BF9D178E03B681B68454A93420ED1B1
:104950003A6A80235B04134009D13B6A80225204E7
:1049600013433B4A19001000FEF728FE64E03B6841
:104970001B683C4A93425FD13A6A8023DB031340B1
:104980005AD13B6A8022D2031343314A19001000E6
:10499000FEF714FE50E07B681A6980231B069A42DA
:1049A00004D07B681B69304A934207D17B681A6840
:1049B0003B681B6819001000FEF797FE3B681B68F8
:1049C000002B39DA224B1800FEF70CFE03003B6285
:1049D0003B681B681F4A934208D13B6A234A134035
:1049E0001B4A19001000FEF7E9FD25E03B681B6833
:1049F0001B4A934208D13B6A1D4A1340144A1900CE
:104A00001000FEF7DBFD17E03B681B68154A934278
:104A100012D13B6A174A13400D4A19001000FEF7E5
:104A2000CDFD09E07B689B6D20221A437B689A6567
:104A30002723FB1801221A707B6854220021995405
:104A40002723FB181B781800BD460BB090BDC0464D
:104A500008270140000800AC14000020400D0300AE
:104A6000002000B4001000B004000080FFFF7FFFB2
:104A7000FFFFFFFEFFFFBFFF80B584B000AF78608F
:104A80007B681B68234A934205D0234A234B1100BD
:104A90001800FEF7DBFA7B681B681800FEF7F6FECD
:104AA000031E31D07B681B681800FEF7BAFE031E98
:104AB00004D17B681B681800FEF7D6FEFEF752FD96
:104AC0000300FB601AE0FEF74DFD0200FB68D31AFD
:104AD000022B13D97B681B689B68042213400DD0FE
:104AE0007B689B6D10221A437B689A657B68DB6D3F
:104AF00001221A437B68DA65012306E07B681B68A4
:104B00009B6804221340DED100231800BD4604B088
:104B100080BDC04600240140C70A00003CD3000805
:104B200080B584B000AF78600023BB607B681B68F1
:104B30001800FEF765FE031E00D069E07B681B6865
:104B40009B68364A13400DD07B689B6D10221A4338
:104B50007B689A657B68DB6D01221A437B68DA65A6
:104B6000012356E07B681B681800FEF725FE2C4BDE
:104B70001800FEF737FD020080231B0413400FD0FE
:104B8000284B1B6828491800FBF7D0FA03000133B3
:104B9000BB6002E0BB68013BBB60BB68002BF9D186
:104BA0007B685B7E012B33D0FEF7DCFC0300FB60EF
:104BB00027E07B681B681800FEF722FE031E04D165
:104BC0007B681B681800FEF7F7FDFEF7CBFC0200C0
:104BD000FB68D31A022B14D97B681B681B6801225F
:104BE0001340012B0DD07B689B6D10221A437B680C
:104BF0009A657B68DB6D01221A437B68DA650123C5
:104C000007E07B681B681B6801221340012BD0D191
:104C100000231800BD4604B080BDC04617000080C8
:104C20000827014014000020400D030080B584B027
:104C300000AF78607B681B681800FEF7F2FD030088
:104C4000FB607B681B681800FEF7DAFD031E46D088
:104C5000FB68002B43D17B681B689B6805221340CF
:104C6000012B0DD17B681B681800FEF7B7FD7B6830
:104C70001B6803221A60FEF775FC0300BB6028E086
:104C80007B689B6D10221A437B689A657B68DB6D9D
:104C900001221A437B68DA65012321E0FEF762FCFA
:104CA0000200BB68D31A022B13D97B681B689B6870
:104CB000012213400DD07B689B6D10221A437B6844
:104CC0009A657B68DB6D01221A437B68DA650123F4
:104CD00006E07B681B689B6801221340DED100233D
:104CE0001800BD4604B080BD80B582B000AF7860CA
:104CF0007B681A68F0239B0313401800BD4602B07E
:104D000080BD80B582B000AF78607B681B699B0F67
:104D10009B071800BD4602B080BD80B582B000AFD1
:104D2000786039607B68B4229B587F2293431A00D5
:104D30003B681A437B68B4215A50C046BD4602B056
:104D400080BD80B582B000AF78607B68B4229B588C
:104D50007F2213401800BD4602B080BD80B582B0EE
:104D600000AF78607B689B68044A134001221A43B5
:104D70007B689A60C046BD4602B080BDE8FFFF7FF9
:104D800080B582B000AF78607B689B68044A1340AE
:104D900002221A437B689A60C046BD4602B080BDBD
:104DA000E8FFFF7F80B582B000AF78607B689B68CA
:104DB00001221340012B01D1012300E00023180040
:104DC000BD4602B080BD000080B582B000AF786003
:104DD0007B689B68054A1340802212061A437B6851
:104DE0009A60C046BD4602B080BDC046E8FFFF7F66
:104DF00080B582B000AF78607B689B68DB0FDA0714
:104E000080231B069A4201D1012300E000231800F1
:104E1000BD4602B080BD000090B58BB000AF786099
:104E20000023FB6000233B627B681B68784A934247
:104E300004D0784B72211800FEF708F97B685422E1
:104E40009B5C012B01D10223DEE07B68542201210F
:104E500099541F23FC187B681800FFF7E7FE030036
:104E600023707B681B681800FFF79CFF031E00D0AF
:104E7000BDE07B689B6D684A134002221A437B6841
:104E80009A657B681B68DB68644A1340BB617B687A
:104E90001B68DA687B681B6861490A40DA60002396
:104EA0007B622EE07B681B681800FFF78DFF15E022
:104EB000FB680133FB60FA68AE239B029A420DD374
:104EC0007B689B6D1222934310221A437B689A657C
:104ED0007B68542200219954012395E07B681B686C
:104EE0001800FFF785FF031EE2D17B681B681800DE
:104EF000FFF727FF02003B6A9B183B627B6A013386
:104F00007B627B6A072BCDD9796A386AFBF70EF989
:104F100003003B627B681B681800FFF71FFF7B687C
:104F20001B681800FFF7EDFE031E1BD13D4B180058
:104F3000FFF7DAFE03007B617A69E0235B039A42A4
:104F400010D37B699B0C033B01229A401300BB608A
:104F5000BB685B08BB6002E0BB68013BBB60BB6831
:104F6000002BF9D17B681B683A6A11001800FFF723
:104F7000D4FE7B681B681800FFF702FFFEF7F2FA09
:104F800003003B611BE0FEF7EDFA02003B69D31A18
:104F9000022B14D97B681B681800FFF703FF031E60
:104FA0000DD07B689B6D10221A437B689A657B68E5
:104FB000DB6D01221A437B68DA65012324E07B68FC
:104FC0001B681800FFF7EEFE031EDCD17B681B6830
:104FD000D9687B681B68BA690A43DA607B689B6D95
:104FE0000322934301221A437B689A6505E07B689C
:104FF0009B6D10221A437B689A657B6854220021BE
:1050000099541F23FB181B781800BD460BB090BDA8
:105010000024014074D30008FDFEFFFF0380000060
:10502000FC7FFFFF0827014080B582B000AF02007F
:10503000FB1D1A70FB1D1B787F2B09D8FB1D1B78ED
:105040001A001F231A40044B012191400A001A60E4
:10505000C046BD4602B080BD00E100E090B583B01F
:1050600000AF02003960FB1D1A70FB1D1B787F2BFF
:1050700028D82F4AFB1D1B785BB29B08C0339B00CE
:105080009B58FA1D1278110003220A40D200FF211A
:1050900091400A00D2431A4011003B689B01FF2255
:1050A0001A40FB1D1B78180003230340DB009A40C5
:1050B0001F48FB1D1B785BB29B080A43C0339B0053
:1050C0001A5031E01B4AFB1D1B7819000F230B40BF
:1050D000083B9B0806339B00D31804331B68FA1D5A
:1050E0001278110003220A40D200FF2191400A00E9
:1050F000D2431A4011003B689B01FF221A40FB1D5E
:105100001B78180003230340DB009A400948FB1D6D
:105110001B781C000F232340083B9B080A430633DF
:105120009B00C31804331A60C046BD4603B090BD4F
:1051300000E100E000ED00E080B582B000AF7860F3
:105140007B685A1E80235B049A4201D3012310E03E
:105150000A4B7A68013A5A6001235B420321180026
:10516000FFF77CFF054B00229A60044B07221A6070
:1051700000231800BD4602B080BDC04610E000E02C
:1051800080B584B000AFB9607A600F23FB18021CB1
:105190001A70BB68032B04D9084B87211800FDF750
:1051A00055FFBA680F23FB181B785BB2110018007B
:1051B000FFF754FFC046BD4604B080BDB0D3000821
:1051C00080B582B000AF0200FB1D1A70FB1D1B787A
:1051D0007F2B04D9074B96211800FDF737FFFB1DE5
:1051E0001B785BB21800FFF71FFFC046BD4602B038
:1051F00080BDC046B0D3000880B582B000AF7860F3
:105200007B681800FFF798FF03001800BD4602B046
:1052100080BD000080B586B000AF786039600023A3
:105220007B617A68A023DB059A4214D07B68CF4A61
:10523000934210D07B68CE4A93420CD07B68CD4A13
:10524000934208D07B68CC4A934204D0CB4BA32135
:105250001800FDF7FBFE3B681B681B041B0C05D008
:105260003B681A6880235B029A4204D3C34BA42193
:105270001800FDF7EBFE3B685B68002B00D1ECE10A
:105280003B685B68012B00D1E7E13B685B68112B51
:1052900000D1E2E13B685B68022B00D1DDE13B68B5
:1052A0005B68122B00D1D8E13B685A6888235B0306
:1052B0009A4200D1D1E13B685A6884239B039A4209
:1052C00000D1CAE13B685A68C4239B039A4200D1CB
:1052D000C3E13B685A6890235B039A4200D1BCE16A
:1052E0003B685A6888239B039A4200D1B5E13B682A
:1052F0005A68C8239B039A4200D1AEE13B685B68C1
:10530000032B00D1A9E19D4BA5211800FDF79EFEBE
:10531000A3E13B681B6801217A6991400A001340B0
:10532000FB60FB68002B00D194E13B685B680322C3
:105330001340012B05D03B685B6803221340022B0E
:1053400045D13B68DB68002B10D03B68DB68012B44
:105350000CD03B68DB68022B08D03B68DB68032B72
:1053600004D0864BB4211800FDF770FE7B689B6863
:105370003B617B695B0003229A401300DA433B697F
:1053800013403B613B68DA687B695B009A4013001D
:105390003A6913433B617B683A699A607B685B6852
:1053A0003B6101227B699A401300DA433B69134059
:1053B0003B613B685B681B0901221A407B699A408C
:1053C00013003A6913433B617B683A695A603B6852
:1053D0005B6803221340032B28D03B689B68002B9B
:1053E0000CD03B689B68012B08D03B689B68022B64
:1053F00004D0624BC6211800FDF728FE7B68DB68ED
:105400003B617B695B0003229A401300DA433B69EE
:1054100013403B613B689A687B695B009A401300CC
:105420003A6913433B617B683A69DA603B685B68C1
:1054300003221340022B46D17A68A023DB059A424F
:1054400014D07B68494A934210D07B68484A934203
:105450000CD07B68474A934208D07B68464A934207
:1054600004D0464BD3211800FDF7F0FD3B681B69C3
:105470000F2B04D9414BD4211800FDF7E7FD7B69C0
:10548000DA087B6808329200D3583B617B690722B7
:1054900013409B000F229A401300DA433B691340EC
:1054A0003B613B681A697B6907210B409B009A406E
:1054B00013003A6913433B617B69DA087B68083261
:1054C00092003969D1507B681B683B617B695B0046
:1054D00003229A401300DA433B6913403B613B6867
:1054E0005B6803221A407B695B009A4013003A69AB
:1054F00013433B617B683A691A603B685A68C02372
:105500009B02134000D1A5E01D4A7B699B0818331C
:105510009B009B583B617B6903221340DB000F22F9
:105520009A401300DA433B6913403B617A68A02339
:10553000DB059A4226D07B680C4A934213D07B68E5
:105540000B4A93420DD07B680A4A934207D07B688E
:10555000094A934201D1052315E0062313E00323F2
:1055600011E002230FE001230DE0C04600040050CB
:1055700000080050000C005000140050ECD300084C
:105580000018024000237A6903210A40D2009340A8
:105590003A6913433B6137497B699B0818339B0089
:1055A0003A695A50334B1B683B61FB68DA433B69ED
:1055B00013403B613B685A6880235B03134003D070
:1055C0003A69FB6813433B612A4B3A691A60294BDD
:1055D0005B683B61FB68DA433B6913403B613B68B6
:1055E0005A6880239B03134003D03A69FB68134336
:1055F0003B61204B3A695A601E4A8423D3583B6171
:10560000FB68DA433B6913403B613B685A6880237F
:105610009B02134003D03A69FB6813433B61154971
:1056200084223B698B50134A8023D3583B61FB682B
:10563000DA433B6913403B613B685A6880235B0255
:10564000134003D03A69FB6813433B610949802248
:105650003B698B507B6901337B613B681A687B69CE
:10566000DA40131E00D054E6C046C046BD4606B020
:1056700080BDC0460018024080B586B000AF78609B
:10568000396000237B617A68A023DB059A4216D03B
:105690007B68774A934212D07B68764A93420ED059
:1056A0007B68754A93420AD07B68744A934206D05D
:1056B00091235A00724B11001800FDF7C7FC3B689C
:1056C0001B041B0C05D03A6880235B029A4200D26F
:1056D000C3E02423FF331A00694B11001800FDF7C3
:1056E000B5FCBAE001227B699A403B6813403B61FC
:1056F0003B69002B00D1ADE0624A7B699B081833FF
:105700009B009B58FB607B6903221340DB000F2248
:105710009A40FB681340FB607A68A023DB059A423D
:1057200019D07B68524A934213D07B68514A934206
:105730000DD07B68504A934207D07B684F4A934212
:1057400001D1052308E0062306E0032304E0022339
:1057500002E0012300E000237A6903210A40D2001D
:105760009340FA689A4236D1464A8023D3583A6920
:10577000D2434449134080228B50424A8423D35859
:105780003A69D2433F49134084228B503D4B5A68BB
:105790003B69D9433B4B0A405A603A4B1A683B6914
:1057A000D943384B0A401A607B6903221340DB005F
:1057B0000F229A401300FB60324A7B699B08183322
:1057C0009B009A58FB68D9432E487B699B080A4086
:1057D00018339B001A507B681A687B695B000321B1
:1057E00099400B001A437B681A607B69DA087B6872
:1057F00008329200D3587A6907210A4092000F219B
:1058000091400A00D1437A69D20819407B68083276
:105810009200D1507B689B687A69520003219140C5
:105820000A00D2431A407B689A607B685B6801215A
:105830007A6991400A00D2431A407B685A607B68BB
:10584000DB687A695200032191400A00D2431A4072
:105850007B68DA607B6901337B613A687B69DA4097
:10586000131E00D03EE7C046C046BD4606B080BD10
:105870000004005000080050000C005000140050BC
:10588000ECD300080018024080B584B000AF786007
:105890000A00BB1C1A80BB1C1B88002B07D172237B
:1058A000FF331A000D4B11001800FDF7CFFB7B688A
:1058B0001B69BA1C1288134004D00F23FB18012265
:1058C0001A7003E00F23FB1800221A700F23FB1835
:1058D0001B781800BD4604B080BDC046ECD300085C
:1058E00080B582B000AF786008001100BB1C021CBC
:1058F0001A807B1C0A1C1A70BB1C1B88002B07D14A
:105900009223FF331A00124B11001800FDF79EFB83
:105910007B1C1B78002B0AD07B1C1B78012B06D02C
:10592000C9235A000A4B11001800FDF78FFB7B1C9E
:105930001B78002B04D0BB1C1A887B689A6103E09B
:10594000BB1C1A887B689A62C046BD4602B080BD07
:10595000ECD3000880B582B000AF0200BB1D1A80F6
:10596000104BDB68BA1D1288134008D00D4BBA1DCE
:105970001288DA60BB1D1B881800FDF7FBF8094B85
:105980001B69BA1D1288134008D0064BBA1D128835
:105990001A61BB1D1B881800FDF7FCF8C046BD4608
:1059A00002B080BD0018024080B584B000AF7860BE
:1059B0007A6880239B009A4209D07A688023DB00B2
:1059C0009A4204D02C4BC3211800FDF73FFB7A68A4
:1059D00080239B009A4237D1284B1A68C023DB00F2
:1059E0001A4080239B009A4240D0244B1B68244AD3
:1059F0001A40224B802189000A431A60214B1B6800
:105A00003222534320491800FAF790FB0300013378
:105A1000FB6002E0FB68013BFB60184B5A69802386
:105A2000DB001A408023DB009A4202D1FB68002B86
:105A3000F0D1124B5A698023DB001A408023DB002F
:105A40009A4213D1032312E00C4B1A68C023DB00E7
:105A50001A408023DB009A4208D0084B1B68084A92
:105A60001A40064B8021C9000A431A60002318001F
:105A7000BD4604B080BDC04628D400080070004078
:105A8000FFF9FFFF1400002040420F0080B500AF77
:105A9000034B1A68C023DB0013401800BD4680BDCD
:105AA00000700040B0B588B000AF78607B68002B14
:105AB00007D14E23FF331A00BD4B11001800FDF72C
:105AC000C5FA7B681B68002B1FD07B681B6801220E
:105AD00013401AD17B681B680222134015D17B68E2
